{
  "contracts/TokenResurrectionFactory.sol": {
    "TokenResurrectionFactory": {
      "abi": [
        {
          "anonymous": false,
          "inputs": [
            {
              "indexed": true,
              "internalType": "address",
              "name": "contractAddress",
              "type": "address"
            },
            {
              "indexed": false,
              "internalType": "contract IEAS",
              "name": "eas",
              "type": "address"
            },
            {
              "indexed": false,
              "internalType": "bytes32",
              "name": "merkleRoot",
              "type": "bytes32"
            }
          ],
          "name": "ContractDeployed",
          "type": "event"
        },
        {
          "inputs": [
            {
              "internalType": "contract IEAS",
              "name": "_eas",
              "type": "address"
            },
            {
              "internalType": "bytes32",
              "name": "_merkleRoot",
              "type": "bytes32"
            }
          ],
          "name": "deploy",
          "outputs": [
            {
              "internalType": "address",
              "name": "",
              "type": "address"
            }
          ],
          "stateMutability": "nonpayable",
          "type": "function"
        },
        {
          "inputs": [
            {
              "internalType": "address",
              "name": "",
              "type": "address"
            },
            {
              "internalType": "uint256",
              "name": "",
              "type": "uint256"
            }
          ],
          "name": "deployedContracts",
          "outputs": [
            {
              "internalType": "address",
              "name": "",
              "type": "address"
            }
          ],
          "stateMutability": "view",
          "type": "function"
        },
        {
          "inputs": [],
          "name": "getDeployedContracts",
          "outputs": [
            {
              "internalType": "address[]",
              "name": "",
              "type": "address[]"
            }
          ],
          "stateMutability": "view",
          "type": "function"
        }
      ],
      "evm": {
        "bytecode": {
          "linkReferences": {},
          "object": "608060405234801561001057600080fd5b50612391806100206000396000f3fe608060405234801561001057600080fd5b50600436106100415760003560e01c806332c02a14146100465780634596755514610076578063aa9a068f146100a6575b600080fd5b610060600480360381019061005b91906103c9565b6100c4565b60405161006d9190610418565b60405180910390f35b610090600480360381019061008b9190610495565b6101f8565b60405161009d9190610418565b60405180910390f35b6100ae610246565b6040516100bb9190610593565b60405180910390f35b60008083836040516100d590610310565b6100e0929190610623565b604051809103906000f0801580156100fc573d6000803e3d6000fd5b5090506000803373ffffffffffffffffffffffffffffffffffffffff1673ffffffffffffffffffffffffffffffffffffffff168152602001908152602001600020819080600181540180825580915050600190039060005260206000200160009091909190916101000a81548173ffffffffffffffffffffffffffffffffffffffff021916908373ffffffffffffffffffffffffffffffffffffffff1602179055508073ffffffffffffffffffffffffffffffffffffffff167f41a1a1e5033fb48fa68ae6842ead9050d540ddf76974d1cee54faf540d1f49e685856040516101e6929190610623565b60405180910390a28091505092915050565b6000602052816000526040600020818154811061021457600080fd5b906000526020600020016000915091509054906101000a900473ffffffffffffffffffffffffffffffffffffffff1681565b60606000803373ffffffffffffffffffffffffffffffffffffffff1673ffffffffffffffffffffffffffffffffffffffff16815260200190815260200160002080548060200260200160405190810160405280929190818152602001828054801561030657602002820191906000526020600020905b8160009054906101000a900473ffffffffffffffffffffffffffffffffffffffff1673ffffffffffffffffffffffffffffffffffffffff16815260200190600101908083116102bc575b5050505050905090565b611d0f806200064d83390190565b600080fd5b600073ffffffffffffffffffffffffffffffffffffffff82169050919050565b600061034e82610323565b9050919050565b600061036082610343565b9050919050565b61037081610355565b811461037b57600080fd5b50565b60008135905061038d81610367565b92915050565b6000819050919050565b6103a681610393565b81146103b157600080fd5b50565b6000813590506103c38161039d565b92915050565b600080604083850312156103e0576103df61031e565b5b60006103ee8582860161037e565b92505060206103ff858286016103b4565b9150509250929050565b61041281610343565b82525050565b600060208201905061042d6000830184610409565b92915050565b61043c81610343565b811461044757600080fd5b50565b60008135905061045981610433565b92915050565b6000819050919050565b6104728161045f565b811461047d57600080fd5b50565b60008135905061048f81610469565b92915050565b600080604083850312156104ac576104ab61031e565b5b60006104ba8582860161044a565b92505060206104cb85828601610480565b9150509250929050565b600081519050919050565b600082825260208201905092915050565b6000819050602082019050919050565b61050a81610343565b82525050565b600061051c8383610501565b60208301905092915050565b6000602082019050919050565b6000610540826104d5565b61054a81856104e0565b9350610555836104f1565b8060005b8381101561058657815161056d8882610510565b975061057883610528565b925050600181019050610559565b5085935050505092915050565b600060208201905081810360008301526105ad8184610535565b905092915050565b6000819050919050565b60006105da6105d56105d084610323565b6105b5565b610323565b9050919050565b60006105ec826105bf565b9050919050565b60006105fe826105e1565b9050919050565b61060e816105f3565b82525050565b61061d81610393565b82525050565b60006040820190506106386000830185610605565b6106456020830184610614565b939250505056fe6101206040523480156200001257600080fd5b5060405162001d0f38038062001d0f8339818101604052810190620000389190620001c0565b8160016003600082608081815250508160a081815250508060c08181525050505050600073ffffffffffffffffffffffffffffffffffffffff168173ffffffffffffffffffffffffffffffffffffffff1603620000c1576040517f83780ffe00000000000000000000000000000000000000000000000000000000815260040160405180910390fd5b8073ffffffffffffffffffffffffffffffffffffffff1660e08173ffffffffffffffffffffffffffffffffffffffff168152505050806101008181525050505062000207565b600080fd5b600073ffffffffffffffffffffffffffffffffffffffff82169050919050565b600062000139826200010c565b9050919050565b60006200014d826200012c565b9050919050565b6200015f8162000140565b81146200016b57600080fd5b50565b6000815190506200017f8162000154565b92915050565b6000819050919050565b6200019a8162000185565b8114620001a657600080fd5b50565b600081519050620001ba816200018f565b92915050565b60008060408385031215620001da57620001d962000107565b5b6000620001ea858286016200016e565b9250506020620001fd85828601620001a9565b9150509250929050565b60805160a05160c05160e05161010051611abc620002536000396000818161067501526109c4015260006107a9015260006102b70152600061028e015260006102650152611abc6000f3fe60806040526004361061007f5760003560e01c8063b80ac7df1161004e578063b80ac7df14610191578063ce46e046146101ce578063e49617e1146101f9578063e60c350514610229576100c4565b806354fd4d50146100c957806388e5b2d9146100f457806391db0b7e14610124578063af66c56014610154576100c4565b366100c45761008c610259565b6100c2576040517f1574f9f300000000000000000000000000000000000000000000000000000000815260040160405180910390fd5b005b600080fd5b3480156100d557600080fd5b506100de61025e565b6040516100eb9190610dce565b60405180910390f35b61010e60048036038101906101099190610ebf565b610301565b60405161011b9190610f5b565b60405180910390f35b61013e60048036038101906101399190610ebf565b61041c565b60405161014b9190610f5b565b60405180910390f35b34801561016057600080fd5b5061017b600480360381019061017691906110a6565b610537565b6040516101889190611144565b60405180910390f35b34801561019d57600080fd5b506101b860048036038101906101b391906111f2565b61062c565b6040516101c59190610f5b565b60405180910390f35b3480156101da57600080fd5b506101e3610259565b6040516101f09190610f5b565b60405180910390f35b610213600480360381019061020e9190611277565b6106a3565b6040516102209190610f5b565b60405180910390f35b610243600480360381019061023e9190611277565b6106be565b6040516102509190610f5b565b60405180910390f35b600090565b60606102897f00000000000000000000000000000000000000000000000000000000000000006106d9565b6102b27f00000000000000000000000000000000000000000000000000000000000000006106d9565b6102db7f00000000000000000000000000000000000000000000000000000000000000006106d9565b6040516020016102ed93929190611348565b604051602081830303815290604052905090565b600061030b6107a7565b600085859050905083839050811461034f576040517f947d5a8400000000000000000000000000000000000000000000000000000000815260040160405180910390fd5b600034905060005b8281101561040c5760008686838181106103745761037361138f565b5b905060200201359050828111156103b7576040517f1101129400000000000000000000000000000000000000000000000000000000815260040160405180910390fd5b6103e58989848181106103cd576103cc61138f565b5b90506020028101906103df91906113cd565b8261082e565b6103f6576000945050505050610414565b8083039250506104058161083a565b9050610357565b506001925050505b949350505050565b60006104266107a7565b600085859050905083839050811461046a576040517f947d5a8400000000000000000000000000000000000000000000000000000000815260040160405180910390fd5b600034905060005b8281101561052757600086868381811061048f5761048e61138f565b5b905060200201359050828111156104d2576040517f1101129400000000000000000000000000000000000000000000000000000000815260040160405180910390fd5b6105008989848181106104e8576104e761138f565b5b90506020028101906104fa91906113cd565b82610847565b61051157600094505050505061052f565b8083039250506105208161083a565b9050610472565b506001925050505b949350505050565b6060600060208351610549919061142f565b67ffffffffffffffff81111561056257610561610f7b565b5b6040519080825280601f01601f1916602001820160405280156105945781602001600182028036833780820191505090505b50905060208082015260005b8351811015610622578381815181106105bc576105bb61138f565b5b602001015160f81c60f81b826020836105d5919061142f565b815181106105e6576105e561138f565b5b60200101907effffffffffffffffffffffffffffffffffffffffffffffffffffffffffffff1916908160001a90535080806001019150506105a0565b5080915050919050565b600061069a848480806020026020016040519081016040528093929190818152602001838360200280828437600081840152601f19601f820116905080830192505050505050507f000000000000000000000000000000000000000000000000000000000000000084610ae7565b90509392505050565b60006106ad6107a7565b6106b7823461082e565b9050919050565b60006106c86107a7565b6106d28234610847565b9050919050565b6060600060016106e884610afe565b01905060008167ffffffffffffffff81111561070757610706610f7b565b5b6040519080825280601f01601f1916602001820160405280156107395781602001600182028036833780820191505090505b509050600082602001820190505b60011561079c578080600190039150507f3031323334353637383961626364656600000000000000000000000000000000600a86061a8153600a85816107905761078f611463565b5b04945060008503610747575b819350505050919050565b7f000000000000000000000000000000000000000000000000000000000000000073ffffffffffffffffffffffffffffffffffffffff163373ffffffffffffffffffffffffffffffffffffffff161461082c576040517f4ca8886700000000000000000000000000000000000000000000000000000000815260040160405180910390fd5b565b60006001905092915050565b6000600182019050919050565b60008060008460e001602081019061085f91906114f0565b73ffffffffffffffffffffffffffffffffffffffff1673ffffffffffffffffffffffffffffffffffffffff16815260200190815260200160002060009054906101000a900460ff16156108e7576040517f08c379a00000000000000000000000000000000000000000000000000000000081526004016108de90611569565b60405180910390fd5b6108ef610ce3565b606060008560e001602081019061090691906114f0565b60405160200161091691906115d1565b604051602081830303815290604052805190602001209050600061098c8780610120019061094491906115ec565b8080601f016020809104026020016040519081016040528093929190818152602001838380828437600081840152601f19601f82011690508083019250505050505050610537565b9050808060200190518101906109a2919061185f565b935083608001518060200190518101906109bc9190611980565b92506109e9837f000000000000000000000000000000000000000000000000000000000000000084610ae7565b610a28576040517f08c379a0000000000000000000000000000000000000000000000000000000008152600401610a1f90611a15565b60405180910390fd5b7fbff1a7735cbe7c6dac1a1b7e22fde7f383fa27b623bf82dde4756cc2f6c498f187806101200190610a5a91906115ec565b604051610a68929190611a62565b60405180910390a160016000808960e0016020810190610a8891906114f0565b73ffffffffffffffffffffffffffffffffffffffff1673ffffffffffffffffffffffffffffffffffffffff16815260200190815260200160002060006101000a81548160ff021916908315150217905550600194505050505092915050565b600082610af48584610c51565b1490509392505050565b600080600090507a184f03e93ff9f4daa797ed6e38ed64bf6a1f0100000000000000008310610b5c577a184f03e93ff9f4daa797ed6e38ed64bf6a1f0100000000000000008381610b5257610b51611463565b5b0492506040810190505b6d04ee2d6d415b85acef81000000008310610b99576d04ee2d6d415b85acef81000000008381610b8f57610b8e611463565b5b0492506020810190505b662386f26fc100008310610bc857662386f26fc100008381610bbe57610bbd611463565b5b0492506010810190505b6305f5e1008310610bf1576305f5e1008381610be757610be6611463565b5b0492506008810190505b6127108310610c16576127108381610c0c57610c0b611463565b5b0492506004810190505b60648310610c395760648381610c2f57610c2e611463565b5b0492506002810190505b600a8310610c48576001810190505b80915050919050565b60008082905060005b8451811015610c9657610c8782868381518110610c7a57610c7961138f565b5b6020026020010151610ca1565b91508080600101915050610c5a565b508091505092915050565b6000818310610cb957610cb48284610ccc565b610cc4565b610cc38383610ccc565b5b905092915050565b600082600052816020526040600020905092915050565b6040518060a00160405280600073ffffffffffffffffffffffffffffffffffffffff16815260200160608152602001600073ffffffffffffffffffffffffffffffffffffffff16815260200160608152602001606081525090565b600081519050919050565b600082825260208201905092915050565b60005b83811015610d78578082015181840152602081019050610d5d565b60008484015250505050565b6000601f19601f8301169050919050565b6000610da082610d3e565b610daa8185610d49565b9350610dba818560208601610d5a565b610dc381610d84565b840191505092915050565b60006020820190508181036000830152610de88184610d95565b905092915050565b6000604051905090565b600080fd5b600080fd5b600080fd5b600080fd5b600080fd5b60008083601f840112610e2957610e28610e04565b5b8235905067ffffffffffffffff811115610e4657610e45610e09565b5b602083019150836020820283011115610e6257610e61610e0e565b5b9250929050565b60008083601f840112610e7f57610e7e610e04565b5b8235905067ffffffffffffffff811115610e9c57610e9b610e09565b5b602083019150836020820283011115610eb857610eb7610e0e565b5b9250929050565b60008060008060408587031215610ed957610ed8610dfa565b5b600085013567ffffffffffffffff811115610ef757610ef6610dff565b5b610f0387828801610e13565b9450945050602085013567ffffffffffffffff811115610f2657610f25610dff565b5b610f3287828801610e69565b925092505092959194509250565b60008115159050919050565b610f5581610f40565b82525050565b6000602082019050610f706000830184610f4c565b92915050565b600080fd5b7f4e487b7100000000000000000000000000000000000000000000000000000000600052604160045260246000fd5b610fb382610d84565b810181811067ffffffffffffffff82111715610fd257610fd1610f7b565b5b80604052505050565b6000610fe5610df0565b9050610ff18282610faa565b919050565b600067ffffffffffffffff82111561101157611010610f7b565b5b61101a82610d84565b9050602081019050919050565b82818337600083830152505050565b600061104961104484610ff6565b610fdb565b90508281526020810184848401111561106557611064610f76565b5b611070848285611027565b509392505050565b600082601f83011261108d5761108c610e04565b5b813561109d848260208601611036565b91505092915050565b6000602082840312156110bc576110bb610dfa565b5b600082013567ffffffffffffffff8111156110da576110d9610dff565b5b6110e684828501611078565b91505092915050565b600081519050919050565b600082825260208201905092915050565b6000611116826110ef565b61112081856110fa565b9350611130818560208601610d5a565b61113981610d84565b840191505092915050565b6000602082019050818103600083015261115e818461110b565b905092915050565b60008083601f84011261117c5761117b610e04565b5b8235905067ffffffffffffffff81111561119957611198610e09565b5b6020830191508360208202830111156111b5576111b4610e0e565b5b9250929050565b6000819050919050565b6111cf816111bc565b81146111da57600080fd5b50565b6000813590506111ec816111c6565b92915050565b60008060006040848603121561120b5761120a610dfa565b5b600084013567ffffffffffffffff81111561122957611228610dff565b5b61123586828701611166565b93509350506020611248868287016111dd565b9150509250925092565b600080fd5b6000610140828403121561126e5761126d611252565b5b81905092915050565b60006020828403121561128d5761128c610dfa565b5b600082013567ffffffffffffffff8111156112ab576112aa610dff565b5b6112b784828501611257565b91505092915050565b600081905092915050565b60006112d682610d3e565b6112e081856112c0565b93506112f0818560208601610d5a565b80840191505092915050565b7f2e00000000000000000000000000000000000000000000000000000000000000600082015250565b60006113326001836112c0565b915061133d826112fc565b600182019050919050565b600061135482866112cb565b915061135f82611325565b915061136b82856112cb565b915061137682611325565b915061138282846112cb565b9150819050949350505050565b7f4e487b7100000000000000000000000000000000000000000000000000000000600052603260045260246000fd5b600080fd5b600080fd5b600080fd5b600082356001610140038336030381126113ea576113e96113be565b5b80830191505092915050565b6000819050919050565b7f4e487b7100000000000000000000000000000000000000000000000000000000600052601160045260246000fd5b600061143a826113f6565b9150611445836113f6565b925082820190508082111561145d5761145c611400565b5b92915050565b7f4e487b7100000000000000000000000000000000000000000000000000000000600052601260045260246000fd5b600073ffffffffffffffffffffffffffffffffffffffff82169050919050565b60006114bd82611492565b9050919050565b6114cd816114b2565b81146114d857600080fd5b50565b6000813590506114ea816114c4565b92915050565b60006020828403121561150657611505610dfa565b5b6000611514848285016114db565b91505092915050565b7f557365722068617320616c726561647920617474657374656400000000000000600082015250565b6000611553601983610d49565b915061155e8261151d565b602082019050919050565b6000602082019050818103600083015261158281611546565b9050919050565b60008160601b9050919050565b60006115a182611589565b9050919050565b60006115b382611596565b9050919050565b6115cb6115c6826114b2565b6115a8565b82525050565b60006115dd82846115ba565b60148201915081905092915050565b60008083356001602003843603038112611609576116086113be565b5b80840192508235915067ffffffffffffffff82111561162b5761162a6113c3565b5b602083019250600182023603831315611647576116466113c8565b5b509250929050565b600080fd5b600080fd5b600081519050611668816114c4565b92915050565b600067ffffffffffffffff82111561168957611688610f7b565b5b61169282610d84565b9050602081019050919050565b60006116b26116ad8461166e565b610fdb565b9050828152602081018484840111156116ce576116cd610f76565b5b6116d9848285610d5a565b509392505050565b600082601f8301126116f6576116f5610e04565b5b815161170684826020860161169f565b91505092915050565b600061172261171d84610ff6565b610fdb565b90508281526020810184848401111561173e5761173d610f76565b5b611749848285610d5a565b509392505050565b600082601f83011261176657611765610e04565b5b815161177684826020860161170f565b91505092915050565b600060a082840312156117955761179461164f565b5b61179f60a0610fdb565b905060006117af84828501611659565b600083015250602082015167ffffffffffffffff8111156117d3576117d2611654565b5b6117df848285016116e1565b60208301525060406117f384828501611659565b604083015250606082015167ffffffffffffffff81111561181757611816611654565b5b611823848285016116e1565b606083015250608082015167ffffffffffffffff81111561184757611846611654565b5b61185384828501611751565b60808301525092915050565b60006020828403121561187557611874610dfa565b5b600082015167ffffffffffffffff81111561189357611892610dff565b5b61189f8482850161177f565b91505092915050565b600067ffffffffffffffff8211156118c3576118c2610f7b565b5b602082029050602081019050919050565b6000815190506118e3816111c6565b92915050565b60006118fc6118f7846118a8565b610fdb565b9050808382526020820190506020840283018581111561191f5761191e610e0e565b5b835b81811015611948578061193488826118d4565b845260208401935050602081019050611921565b5050509392505050565b600082601f83011261196757611966610e04565b5b81516119778482602086016118e9565b91505092915050565b60006020828403121561199657611995610dfa565b5b600082015167ffffffffffffffff8111156119b4576119b3610dff565b5b6119c084828501611952565b91505092915050565b7f496e76616c69642070726f6f6600000000000000000000000000000000000000600082015250565b60006119ff600d83610d49565b9150611a0a826119c9565b602082019050919050565b60006020820190508181036000830152611a2e816119f2565b9050919050565b6000611a4183856110fa565b9350611a4e838584611027565b611a5783610d84565b840190509392505050565b60006020820190508181036000830152611a7d818486611a35565b9050939250505056fea2646970667358221220cc1f22353c3e58396ed1089102513568b2f3a48099baa782624de7d8a2a5178764736f6c63430008180033a2646970667358221220e07a611cf412fe8c2feca56e7e6a45e1ef0b623097c1f8a9a560286b9c38f86564736f6c63430008180033",
          "opcodes": "PUSH1 0x80 PUSH1 0x40 MSTORE CALLVALUE DUP1 ISZERO PUSH2 0x10 JUMPI PUSH1 0x0 DUP1 REVERT JUMPDEST POP PUSH2 0x2391 DUP1 PUSH2 0x20 PUSH1 0x0 CODECOPY PUSH1 0x0 RETURN INVALID PUSH1 0x80 PUSH1 0x40 MSTORE CALLVALUE DUP1 ISZERO PUSH2 0x10 JUMPI PUSH1 0x0 DUP1 REVERT JUMPDEST POP PUSH1 0x4 CALLDATASIZE LT PUSH2 0x41 JUMPI PUSH1 0x0 CALLDATALOAD PUSH1 0xE0 SHR DUP1 PUSH4 0x32C02A14 EQ PUSH2 0x46 JUMPI DUP1 PUSH4 0x45967555 EQ PUSH2 0x76 JUMPI DUP1 PUSH4 0xAA9A068F EQ PUSH2 0xA6 JUMPI JUMPDEST PUSH1 0x0 DUP1 REVERT JUMPDEST PUSH2 0x60 PUSH1 0x4 DUP1 CALLDATASIZE SUB DUP2 ADD SWAP1 PUSH2 0x5B SWAP2 SWAP1 PUSH2 0x3C9 JUMP JUMPDEST PUSH2 0xC4 JUMP JUMPDEST PUSH1 0x40 MLOAD PUSH2 0x6D SWAP2 SWAP1 PUSH2 0x418 JUMP JUMPDEST PUSH1 0x40 MLOAD DUP1 SWAP2 SUB SWAP1 RETURN JUMPDEST PUSH2 0x90 PUSH1 0x4 DUP1 CALLDATASIZE SUB DUP2 ADD SWAP1 PUSH2 0x8B SWAP2 SWAP1 PUSH2 0x495 JUMP JUMPDEST PUSH2 0x1F8 JUMP JUMPDEST PUSH1 0x40 MLOAD PUSH2 0x9D SWAP2 SWAP1 PUSH2 0x418 JUMP JUMPDEST PUSH1 0x40 MLOAD DUP1 SWAP2 SUB SWAP1 RETURN JUMPDEST PUSH2 0xAE PUSH2 0x246 JUMP JUMPDEST PUSH1 0x40 MLOAD PUSH2 0xBB SWAP2 SWAP1 PUSH2 0x593 JUMP JUMPDEST PUSH1 0x40 MLOAD DUP1 SWAP2 SUB SWAP1 RETURN JUMPDEST PUSH1 0x0 DUP1 DUP4 DUP4 PUSH1 0x40 MLOAD PUSH2 0xD5 SWAP1 PUSH2 0x310 JUMP JUMPDEST PUSH2 0xE0 SWAP3 SWAP2 SWAP1 PUSH2 0x623 JUMP JUMPDEST PUSH1 0x40 MLOAD DUP1 SWAP2 SUB SWAP1 PUSH1 0x0 CREATE DUP1 ISZERO DUP1 ISZERO PUSH2 0xFC JUMPI RETURNDATASIZE PUSH1 0x0 DUP1 RETURNDATACOPY RETURNDATASIZE PUSH1 0x0 REVERT JUMPDEST POP SWAP1 POP PUSH1 0x0 DUP1 CALLER PUSH20 0xFFFFFFFFFFFFFFFFFFFFFFFFFFFFFFFFFFFFFFFF AND PUSH20 0xFFFFFFFFFFFFFFFFFFFFFFFFFFFFFFFFFFFFFFFF AND DUP2 MSTORE PUSH1 0x20 ADD SWAP1 DUP2 MSTORE PUSH1 0x20 ADD PUSH1 0x0 KECCAK256 DUP2 SWAP1 DUP1 PUSH1 0x1 DUP2 SLOAD ADD DUP1 DUP3 SSTORE DUP1 SWAP2 POP POP PUSH1 0x1 SWAP1 SUB SWAP1 PUSH1 0x0 MSTORE PUSH1 0x20 PUSH1 0x0 KECCAK256 ADD PUSH1 0x0 SWAP1 SWAP2 SWAP1 SWAP2 SWAP1 SWAP2 PUSH2 0x100 EXP DUP2 SLOAD DUP2 PUSH20 0xFFFFFFFFFFFFFFFFFFFFFFFFFFFFFFFFFFFFFFFF MUL NOT AND SWAP1 DUP4 PUSH20 0xFFFFFFFFFFFFFFFFFFFFFFFFFFFFFFFFFFFFFFFF AND MUL OR SWAP1 SSTORE POP DUP1 PUSH20 0xFFFFFFFFFFFFFFFFFFFFFFFFFFFFFFFFFFFFFFFF AND PUSH32 0x41A1A1E5033FB48FA68AE6842EAD9050D540DDF76974D1CEE54FAF540D1F49E6 DUP6 DUP6 PUSH1 0x40 MLOAD PUSH2 0x1E6 SWAP3 SWAP2 SWAP1 PUSH2 0x623 JUMP JUMPDEST PUSH1 0x40 MLOAD DUP1 SWAP2 SUB SWAP1 LOG2 DUP1 SWAP2 POP POP SWAP3 SWAP2 POP POP JUMP JUMPDEST PUSH1 0x0 PUSH1 0x20 MSTORE DUP2 PUSH1 0x0 MSTORE PUSH1 0x40 PUSH1 0x0 KECCAK256 DUP2 DUP2 SLOAD DUP2 LT PUSH2 0x214 JUMPI PUSH1 0x0 DUP1 REVERT JUMPDEST SWAP1 PUSH1 0x0 MSTORE PUSH1 0x20 PUSH1 0x0 KECCAK256 ADD PUSH1 0x0 SWAP2 POP SWAP2 POP SWAP1 SLOAD SWAP1 PUSH2 0x100 EXP SWAP1 DIV PUSH20 0xFFFFFFFFFFFFFFFFFFFFFFFFFFFFFFFFFFFFFFFF AND DUP2 JUMP JUMPDEST PUSH1 0x60 PUSH1 0x0 DUP1 CALLER PUSH20 0xFFFFFFFFFFFFFFFFFFFFFFFFFFFFFFFFFFFFFFFF AND PUSH20 0xFFFFFFFFFFFFFFFFFFFFFFFFFFFFFFFFFFFFFFFF AND DUP2 MSTORE PUSH1 0x20 ADD SWAP1 DUP2 MSTORE PUSH1 0x20 ADD PUSH1 0x0 KECCAK256 DUP1 SLOAD DUP1 PUSH1 0x20 MUL PUSH1 0x20 ADD PUSH1 0x40 MLOAD SWAP1 DUP2 ADD PUSH1 0x40 MSTORE DUP1 SWAP3 SWAP2 SWAP1 DUP2 DUP2 MSTORE PUSH1 0x20 ADD DUP3 DUP1 SLOAD DUP1 ISZERO PUSH2 0x306 JUMPI PUSH1 0x20 MUL DUP3 ADD SWAP2 SWAP1 PUSH1 0x0 MSTORE PUSH1 0x20 PUSH1 0x0 KECCAK256 SWAP1 JUMPDEST DUP2 PUSH1 0x0 SWAP1 SLOAD SWAP1 PUSH2 0x100 EXP SWAP1 DIV PUSH20 0xFFFFFFFFFFFFFFFFFFFFFFFFFFFFFFFFFFFFFFFF AND PUSH20 0xFFFFFFFFFFFFFFFFFFFFFFFFFFFFFFFFFFFFFFFF AND DUP2 MSTORE PUSH1 0x20 ADD SWAP1 PUSH1 0x1 ADD SWAP1 DUP1 DUP4 GT PUSH2 0x2BC JUMPI JUMPDEST POP POP POP POP POP SWAP1 POP SWAP1 JUMP JUMPDEST PUSH2 0x1D0F DUP1 PUSH3 0x64D DUP4 CODECOPY ADD SWAP1 JUMP JUMPDEST PUSH1 0x0 DUP1 REVERT JUMPDEST PUSH1 0x0 PUSH20 0xFFFFFFFFFFFFFFFFFFFFFFFFFFFFFFFFFFFFFFFF DUP3 AND SWAP1 POP SWAP2 SWAP1 POP JUMP JUMPDEST PUSH1 0x0 PUSH2 0x34E DUP3 PUSH2 0x323 JUMP JUMPDEST SWAP1 POP SWAP2 SWAP1 POP JUMP JUMPDEST PUSH1 0x0 PUSH2 0x360 DUP3 PUSH2 0x343 JUMP JUMPDEST SWAP1 POP SWAP2 SWAP1 POP JUMP JUMPDEST PUSH2 0x370 DUP2 PUSH2 0x355 JUMP JUMPDEST DUP2 EQ PUSH2 0x37B JUMPI PUSH1 0x0 DUP1 REVERT JUMPDEST POP JUMP JUMPDEST PUSH1 0x0 DUP2 CALLDATALOAD SWAP1 POP PUSH2 0x38D DUP2 PUSH2 0x367 JUMP JUMPDEST SWAP3 SWAP2 POP POP JUMP JUMPDEST PUSH1 0x0 DUP2 SWAP1 POP SWAP2 SWAP1 POP JUMP JUMPDEST PUSH2 0x3A6 DUP2 PUSH2 0x393 JUMP JUMPDEST DUP2 EQ PUSH2 0x3B1 JUMPI PUSH1 0x0 DUP1 REVERT JUMPDEST POP JUMP JUMPDEST PUSH1 0x0 DUP2 CALLDATALOAD SWAP1 POP PUSH2 0x3C3 DUP2 PUSH2 0x39D JUMP JUMPDEST SWAP3 SWAP2 POP POP JUMP JUMPDEST PUSH1 0x0 DUP1 PUSH1 0x40 DUP4 DUP6 SUB SLT ISZERO PUSH2 0x3E0 JUMPI PUSH2 0x3DF PUSH2 0x31E JUMP JUMPDEST JUMPDEST PUSH1 0x0 PUSH2 0x3EE DUP6 DUP3 DUP7 ADD PUSH2 0x37E JUMP JUMPDEST SWAP3 POP POP PUSH1 0x20 PUSH2 0x3FF DUP6 DUP3 DUP7 ADD PUSH2 0x3B4 JUMP JUMPDEST SWAP2 POP POP SWAP3 POP SWAP3 SWAP1 POP JUMP JUMPDEST PUSH2 0x412 DUP2 PUSH2 0x343 JUMP JUMPDEST DUP3 MSTORE POP POP JUMP JUMPDEST PUSH1 0x0 PUSH1 0x20 DUP3 ADD SWAP1 POP PUSH2 0x42D PUSH1 0x0 DUP4 ADD DUP5 PUSH2 0x409 JUMP JUMPDEST SWAP3 SWAP2 POP POP JUMP JUMPDEST PUSH2 0x43C DUP2 PUSH2 0x343 JUMP JUMPDEST DUP2 EQ PUSH2 0x447 JUMPI PUSH1 0x0 DUP1 REVERT JUMPDEST POP JUMP JUMPDEST PUSH1 0x0 DUP2 CALLDATALOAD SWAP1 POP PUSH2 0x459 DUP2 PUSH2 0x433 JUMP JUMPDEST SWAP3 SWAP2 POP POP JUMP JUMPDEST PUSH1 0x0 DUP2 SWAP1 POP SWAP2 SWAP1 POP JUMP JUMPDEST PUSH2 0x472 DUP2 PUSH2 0x45F JUMP JUMPDEST DUP2 EQ PUSH2 0x47D JUMPI PUSH1 0x0 DUP1 REVERT JUMPDEST POP JUMP JUMPDEST PUSH1 0x0 DUP2 CALLDATALOAD SWAP1 POP PUSH2 0x48F DUP2 PUSH2 0x469 JUMP JUMPDEST SWAP3 SWAP2 POP POP JUMP JUMPDEST PUSH1 0x0 DUP1 PUSH1 0x40 DUP4 DUP6 SUB SLT ISZERO PUSH2 0x4AC JUMPI PUSH2 0x4AB PUSH2 0x31E JUMP JUMPDEST JUMPDEST PUSH1 0x0 PUSH2 0x4BA DUP6 DUP3 DUP7 ADD PUSH2 0x44A JUMP JUMPDEST SWAP3 POP POP PUSH1 0x20 PUSH2 0x4CB DUP6 DUP3 DUP7 ADD PUSH2 0x480 JUMP JUMPDEST SWAP2 POP POP SWAP3 POP SWAP3 SWAP1 POP JUMP JUMPDEST PUSH1 0x0 DUP2 MLOAD SWAP1 POP SWAP2 SWAP1 POP JUMP JUMPDEST PUSH1 0x0 DUP3 DUP3 MSTORE PUSH1 0x20 DUP3 ADD SWAP1 POP SWAP3 SWAP2 POP POP JUMP JUMPDEST PUSH1 0x0 DUP2 SWAP1 POP PUSH1 0x20 DUP3 ADD SWAP1 POP SWAP2 SWAP1 POP JUMP JUMPDEST PUSH2 0x50A DUP2 PUSH2 0x343 JUMP JUMPDEST DUP3 MSTORE POP POP JUMP JUMPDEST PUSH1 0x0 PUSH2 0x51C DUP4 DUP4 PUSH2 0x501 JUMP JUMPDEST PUSH1 0x20 DUP4 ADD SWAP1 POP SWAP3 SWAP2 POP POP JUMP JUMPDEST PUSH1 0x0 PUSH1 0x20 DUP3 ADD SWAP1 POP SWAP2 SWAP1 POP JUMP JUMPDEST PUSH1 0x0 PUSH2 0x540 DUP3 PUSH2 0x4D5 JUMP JUMPDEST PUSH2 0x54A DUP2 DUP6 PUSH2 0x4E0 JUMP JUMPDEST SWAP4 POP PUSH2 0x555 DUP4 PUSH2 0x4F1 JUMP JUMPDEST DUP1 PUSH1 0x0 JUMPDEST DUP4 DUP2 LT ISZERO PUSH2 0x586 JUMPI DUP2 MLOAD PUSH2 0x56D DUP9 DUP3 PUSH2 0x510 JUMP JUMPDEST SWAP8 POP PUSH2 0x578 DUP4 PUSH2 0x528 JUMP JUMPDEST SWAP3 POP POP PUSH1 0x1 DUP2 ADD SWAP1 POP PUSH2 0x559 JUMP JUMPDEST POP DUP6 SWAP4 POP POP POP POP SWAP3 SWAP2 POP POP JUMP JUMPDEST PUSH1 0x0 PUSH1 0x20 DUP3 ADD SWAP1 POP DUP2 DUP2 SUB PUSH1 0x0 DUP4 ADD MSTORE PUSH2 0x5AD DUP2 DUP5 PUSH2 0x535 JUMP JUMPDEST SWAP1 POP SWAP3 SWAP2 POP POP JUMP JUMPDEST PUSH1 0x0 DUP2 SWAP1 POP SWAP2 SWAP1 POP JUMP JUMPDEST PUSH1 0x0 PUSH2 0x5DA PUSH2 0x5D5 PUSH2 0x5D0 DUP5 PUSH2 0x323 JUMP JUMPDEST PUSH2 0x5B5 JUMP JUMPDEST PUSH2 0x323 JUMP JUMPDEST SWAP1 POP SWAP2 SWAP1 POP JUMP JUMPDEST PUSH1 0x0 PUSH2 0x5EC DUP3 PUSH2 0x5BF JUMP JUMPDEST SWAP1 POP SWAP2 SWAP1 POP JUMP JUMPDEST PUSH1 0x0 PUSH2 0x5FE DUP3 PUSH2 0x5E1 JUMP JUMPDEST SWAP1 POP SWAP2 SWAP1 POP JUMP JUMPDEST PUSH2 0x60E DUP2 PUSH2 0x5F3 JUMP JUMPDEST DUP3 MSTORE POP POP JUMP JUMPDEST PUSH2 0x61D DUP2 PUSH2 0x393 JUMP JUMPDEST DUP3 MSTORE POP POP JUMP JUMPDEST PUSH1 0x0 PUSH1 0x40 DUP3 ADD SWAP1 POP PUSH2 0x638 PUSH1 0x0 DUP4 ADD DUP6 PUSH2 0x605 JUMP JUMPDEST PUSH2 0x645 PUSH1 0x20 DUP4 ADD DUP5 PUSH2 0x614 JUMP JUMPDEST SWAP4 SWAP3 POP POP POP JUMP INVALID PUSH2 0x120 PUSH1 0x40 MSTORE CALLVALUE DUP1 ISZERO PUSH3 0x12 JUMPI PUSH1 0x0 DUP1 REVERT JUMPDEST POP PUSH1 0x40 MLOAD PUSH3 0x1D0F CODESIZE SUB DUP1 PUSH3 0x1D0F DUP4 CODECOPY DUP2 DUP2 ADD PUSH1 0x40 MSTORE DUP2 ADD SWAP1 PUSH3 0x38 SWAP2 SWAP1 PUSH3 0x1C0 JUMP JUMPDEST DUP2 PUSH1 0x1 PUSH1 0x3 PUSH1 0x0 DUP3 PUSH1 0x80 DUP2 DUP2 MSTORE POP POP DUP2 PUSH1 0xA0 DUP2 DUP2 MSTORE POP POP DUP1 PUSH1 0xC0 DUP2 DUP2 MSTORE POP POP POP POP POP PUSH1 0x0 PUSH20 0xFFFFFFFFFFFFFFFFFFFFFFFFFFFFFFFFFFFFFFFF AND DUP2 PUSH20 0xFFFFFFFFFFFFFFFFFFFFFFFFFFFFFFFFFFFFFFFF AND SUB PUSH3 0xC1 JUMPI PUSH1 0x40 MLOAD PUSH32 0x83780FFE00000000000000000000000000000000000000000000000000000000 DUP2 MSTORE PUSH1 0x4 ADD PUSH1 0x40 MLOAD DUP1 SWAP2 SUB SWAP1 REVERT JUMPDEST DUP1 PUSH20 0xFFFFFFFFFFFFFFFFFFFFFFFFFFFFFFFFFFFFFFFF AND PUSH1 0xE0 DUP2 PUSH20 0xFFFFFFFFFFFFFFFFFFFFFFFFFFFFFFFFFFFFFFFF AND DUP2 MSTORE POP POP POP DUP1 PUSH2 0x100 DUP2 DUP2 MSTORE POP POP POP POP PUSH3 0x207 JUMP JUMPDEST PUSH1 0x0 DUP1 REVERT JUMPDEST PUSH1 0x0 PUSH20 0xFFFFFFFFFFFFFFFFFFFFFFFFFFFFFFFFFFFFFFFF DUP3 AND SWAP1 POP SWAP2 SWAP1 POP JUMP JUMPDEST PUSH1 0x0 PUSH3 0x139 DUP3 PUSH3 0x10C JUMP JUMPDEST SWAP1 POP SWAP2 SWAP1 POP JUMP JUMPDEST PUSH1 0x0 PUSH3 0x14D DUP3 PUSH3 0x12C JUMP JUMPDEST SWAP1 POP SWAP2 SWAP1 POP JUMP JUMPDEST PUSH3 0x15F DUP2 PUSH3 0x140 JUMP JUMPDEST DUP2 EQ PUSH3 0x16B JUMPI PUSH1 0x0 DUP1 REVERT JUMPDEST POP JUMP JUMPDEST PUSH1 0x0 DUP2 MLOAD SWAP1 POP PUSH3 0x17F DUP2 PUSH3 0x154 JUMP JUMPDEST SWAP3 SWAP2 POP POP JUMP JUMPDEST PUSH1 0x0 DUP2 SWAP1 POP SWAP2 SWAP1 POP JUMP JUMPDEST PUSH3 0x19A DUP2 PUSH3 0x185 JUMP JUMPDEST DUP2 EQ PUSH3 0x1A6 JUMPI PUSH1 0x0 DUP1 REVERT JUMPDEST POP JUMP JUMPDEST PUSH1 0x0 DUP2 MLOAD SWAP1 POP PUSH3 0x1BA DUP2 PUSH3 0x18F JUMP JUMPDEST SWAP3 SWAP2 POP POP JUMP JUMPDEST PUSH1 0x0 DUP1 PUSH1 0x40 DUP4 DUP6 SUB SLT ISZERO PUSH3 0x1DA JUMPI PUSH3 0x1D9 PUSH3 0x107 JUMP JUMPDEST JUMPDEST PUSH1 0x0 PUSH3 0x1EA DUP6 DUP3 DUP7 ADD PUSH3 0x16E JUMP JUMPDEST SWAP3 POP POP PUSH1 0x20 PUSH3 0x1FD DUP6 DUP3 DUP7 ADD PUSH3 0x1A9 JUMP JUMPDEST SWAP2 POP POP SWAP3 POP SWAP3 SWAP1 POP JUMP JUMPDEST PUSH1 0x80 MLOAD PUSH1 0xA0 MLOAD PUSH1 0xC0 MLOAD PUSH1 0xE0 MLOAD PUSH2 0x100 MLOAD PUSH2 0x1ABC PUSH3 0x253 PUSH1 0x0 CODECOPY PUSH1 0x0 DUP2 DUP2 PUSH2 0x675 ADD MSTORE PUSH2 0x9C4 ADD MSTORE PUSH1 0x0 PUSH2 0x7A9 ADD MSTORE PUSH1 0x0 PUSH2 0x2B7 ADD MSTORE PUSH1 0x0 PUSH2 0x28E ADD MSTORE PUSH1 0x0 PUSH2 0x265 ADD MSTORE PUSH2 0x1ABC PUSH1 0x0 RETURN INVALID PUSH1 0x80 PUSH1 0x40 MSTORE PUSH1 0x4 CALLDATASIZE LT PUSH2 0x7F JUMPI PUSH1 0x0 CALLDATALOAD PUSH1 0xE0 SHR DUP1 PUSH4 0xB80AC7DF GT PUSH2 0x4E JUMPI DUP1 PUSH4 0xB80AC7DF EQ PUSH2 0x191 JUMPI DUP1 PUSH4 0xCE46E046 EQ PUSH2 0x1CE JUMPI DUP1 PUSH4 0xE49617E1 EQ PUSH2 0x1F9 JUMPI DUP1 PUSH4 0xE60C3505 EQ PUSH2 0x229 JUMPI PUSH2 0xC4 JUMP JUMPDEST DUP1 PUSH4 0x54FD4D50 EQ PUSH2 0xC9 JUMPI DUP1 PUSH4 0x88E5B2D9 EQ PUSH2 0xF4 JUMPI DUP1 PUSH4 0x91DB0B7E EQ PUSH2 0x124 JUMPI DUP1 PUSH4 0xAF66C560 EQ PUSH2 0x154 JUMPI PUSH2 0xC4 JUMP JUMPDEST CALLDATASIZE PUSH2 0xC4 JUMPI PUSH2 0x8C PUSH2 0x259 JUMP JUMPDEST PUSH2 0xC2 JUMPI PUSH1 0x40 MLOAD PUSH32 0x1574F9F300000000000000000000000000000000000000000000000000000000 DUP2 MSTORE PUSH1 0x4 ADD PUSH1 0x40 MLOAD DUP1 SWAP2 SUB SWAP1 REVERT JUMPDEST STOP JUMPDEST PUSH1 0x0 DUP1 REVERT JUMPDEST CALLVALUE DUP1 ISZERO PUSH2 0xD5 JUMPI PUSH1 0x0 DUP1 REVERT JUMPDEST POP PUSH2 0xDE PUSH2 0x25E JUMP JUMPDEST PUSH1 0x40 MLOAD PUSH2 0xEB SWAP2 SWAP1 PUSH2 0xDCE JUMP JUMPDEST PUSH1 0x40 MLOAD DUP1 SWAP2 SUB SWAP1 RETURN JUMPDEST PUSH2 0x10E PUSH1 0x4 DUP1 CALLDATASIZE SUB DUP2 ADD SWAP1 PUSH2 0x109 SWAP2 SWAP1 PUSH2 0xEBF JUMP JUMPDEST PUSH2 0x301 JUMP JUMPDEST PUSH1 0x40 MLOAD PUSH2 0x11B SWAP2 SWAP1 PUSH2 0xF5B JUMP JUMPDEST PUSH1 0x40 MLOAD DUP1 SWAP2 SUB SWAP1 RETURN JUMPDEST PUSH2 0x13E PUSH1 0x4 DUP1 CALLDATASIZE SUB DUP2 ADD SWAP1 PUSH2 0x139 SWAP2 SWAP1 PUSH2 0xEBF JUMP JUMPDEST PUSH2 0x41C JUMP JUMPDEST PUSH1 0x40 MLOAD PUSH2 0x14B SWAP2 SWAP1 PUSH2 0xF5B JUMP JUMPDEST PUSH1 0x40 MLOAD DUP1 SWAP2 SUB SWAP1 RETURN JUMPDEST CALLVALUE DUP1 ISZERO PUSH2 0x160 JUMPI PUSH1 0x0 DUP1 REVERT JUMPDEST POP PUSH2 0x17B PUSH1 0x4 DUP1 CALLDATASIZE SUB DUP2 ADD SWAP1 PUSH2 0x176 SWAP2 SWAP1 PUSH2 0x10A6 JUMP JUMPDEST PUSH2 0x537 JUMP JUMPDEST PUSH1 0x40 MLOAD PUSH2 0x188 SWAP2 SWAP1 PUSH2 0x1144 JUMP JUMPDEST PUSH1 0x40 MLOAD DUP1 SWAP2 SUB SWAP1 RETURN JUMPDEST CALLVALUE DUP1 ISZERO PUSH2 0x19D JUMPI PUSH1 0x0 DUP1 REVERT JUMPDEST POP PUSH2 0x1B8 PUSH1 0x4 DUP1 CALLDATASIZE SUB DUP2 ADD SWAP1 PUSH2 0x1B3 SWAP2 SWAP1 PUSH2 0x11F2 JUMP JUMPDEST PUSH2 0x62C JUMP JUMPDEST PUSH1 0x40 MLOAD PUSH2 0x1C5 SWAP2 SWAP1 PUSH2 0xF5B JUMP JUMPDEST PUSH1 0x40 MLOAD DUP1 SWAP2 SUB SWAP1 RETURN JUMPDEST CALLVALUE DUP1 ISZERO PUSH2 0x1DA JUMPI PUSH1 0x0 DUP1 REVERT JUMPDEST POP PUSH2 0x1E3 PUSH2 0x259 JUMP JUMPDEST PUSH1 0x40 MLOAD PUSH2 0x1F0 SWAP2 SWAP1 PUSH2 0xF5B JUMP JUMPDEST PUSH1 0x40 MLOAD DUP1 SWAP2 SUB SWAP1 RETURN JUMPDEST PUSH2 0x213 PUSH1 0x4 DUP1 CALLDATASIZE SUB DUP2 ADD SWAP1 PUSH2 0x20E SWAP2 SWAP1 PUSH2 0x1277 JUMP JUMPDEST PUSH2 0x6A3 JUMP JUMPDEST PUSH1 0x40 MLOAD PUSH2 0x220 SWAP2 SWAP1 PUSH2 0xF5B JUMP JUMPDEST PUSH1 0x40 MLOAD DUP1 SWAP2 SUB SWAP1 RETURN JUMPDEST PUSH2 0x243 PUSH1 0x4 DUP1 CALLDATASIZE SUB DUP2 ADD SWAP1 PUSH2 0x23E SWAP2 SWAP1 PUSH2 0x1277 JUMP JUMPDEST PUSH2 0x6BE JUMP JUMPDEST PUSH1 0x40 MLOAD PUSH2 0x250 SWAP2 SWAP1 PUSH2 0xF5B JUMP JUMPDEST PUSH1 0x40 MLOAD DUP1 SWAP2 SUB SWAP1 RETURN JUMPDEST PUSH1 0x0 SWAP1 JUMP JUMPDEST PUSH1 0x60 PUSH2 0x289 PUSH32 0x0 PUSH2 0x6D9 JUMP JUMPDEST PUSH2 0x2B2 PUSH32 0x0 PUSH2 0x6D9 JUMP JUMPDEST PUSH2 0x2DB PUSH32 0x0 PUSH2 0x6D9 JUMP JUMPDEST PUSH1 0x40 MLOAD PUSH1 0x20 ADD PUSH2 0x2ED SWAP4 SWAP3 SWAP2 SWAP1 PUSH2 0x1348 JUMP JUMPDEST PUSH1 0x40 MLOAD PUSH1 0x20 DUP2 DUP4 SUB SUB DUP2 MSTORE SWAP1 PUSH1 0x40 MSTORE SWAP1 POP SWAP1 JUMP JUMPDEST PUSH1 0x0 PUSH2 0x30B PUSH2 0x7A7 JUMP JUMPDEST PUSH1 0x0 DUP6 DUP6 SWAP1 POP SWAP1 POP DUP4 DUP4 SWAP1 POP DUP2 EQ PUSH2 0x34F JUMPI PUSH1 0x40 MLOAD PUSH32 0x947D5A8400000000000000000000000000000000000000000000000000000000 DUP2 MSTORE PUSH1 0x4 ADD PUSH1 0x40 MLOAD DUP1 SWAP2 SUB SWAP1 REVERT JUMPDEST PUSH1 0x0 CALLVALUE SWAP1 POP PUSH1 0x0 JUMPDEST DUP3 DUP2 LT ISZERO PUSH2 0x40C JUMPI PUSH1 0x0 DUP7 DUP7 DUP4 DUP2 DUP2 LT PUSH2 0x374 JUMPI PUSH2 0x373 PUSH2 0x138F JUMP JUMPDEST JUMPDEST SWAP1 POP PUSH1 0x20 MUL ADD CALLDATALOAD SWAP1 POP DUP3 DUP2 GT ISZERO PUSH2 0x3B7 JUMPI PUSH1 0x40 MLOAD PUSH32 0x1101129400000000000000000000000000000000000000000000000000000000 DUP2 MSTORE PUSH1 0x4 ADD PUSH1 0x40 MLOAD DUP1 SWAP2 SUB SWAP1 REVERT JUMPDEST PUSH2 0x3E5 DUP10 DUP10 DUP5 DUP2 DUP2 LT PUSH2 0x3CD JUMPI PUSH2 0x3CC PUSH2 0x138F JUMP JUMPDEST JUMPDEST SWAP1 POP PUSH1 0x20 MUL DUP2 ADD SWAP1 PUSH2 0x3DF SWAP2 SWAP1 PUSH2 0x13CD JUMP JUMPDEST DUP3 PUSH2 0x82E JUMP JUMPDEST PUSH2 0x3F6 JUMPI PUSH1 0x0 SWAP5 POP POP POP POP POP PUSH2 0x414 JUMP JUMPDEST DUP1 DUP4 SUB SWAP3 POP POP PUSH2 0x405 DUP2 PUSH2 0x83A JUMP JUMPDEST SWAP1 POP PUSH2 0x357 JUMP JUMPDEST POP PUSH1 0x1 SWAP3 POP POP POP JUMPDEST SWAP5 SWAP4 POP POP POP POP JUMP JUMPDEST PUSH1 0x0 PUSH2 0x426 PUSH2 0x7A7 JUMP JUMPDEST PUSH1 0x0 DUP6 DUP6 SWAP1 POP SWAP1 POP DUP4 DUP4 SWAP1 POP DUP2 EQ PUSH2 0x46A JUMPI PUSH1 0x40 MLOAD PUSH32 0x947D5A8400000000000000000000000000000000000000000000000000000000 DUP2 MSTORE PUSH1 0x4 ADD PUSH1 0x40 MLOAD DUP1 SWAP2 SUB SWAP1 REVERT JUMPDEST PUSH1 0x0 CALLVALUE SWAP1 POP PUSH1 0x0 JUMPDEST DUP3 DUP2 LT ISZERO PUSH2 0x527 JUMPI PUSH1 0x0 DUP7 DUP7 DUP4 DUP2 DUP2 LT PUSH2 0x48F JUMPI PUSH2 0x48E PUSH2 0x138F JUMP JUMPDEST JUMPDEST SWAP1 POP PUSH1 0x20 MUL ADD CALLDATALOAD SWAP1 POP DUP3 DUP2 GT ISZERO PUSH2 0x4D2 JUMPI PUSH1 0x40 MLOAD PUSH32 0x1101129400000000000000000000000000000000000000000000000000000000 DUP2 MSTORE PUSH1 0x4 ADD PUSH1 0x40 MLOAD DUP1 SWAP2 SUB SWAP1 REVERT JUMPDEST PUSH2 0x500 DUP10 DUP10 DUP5 DUP2 DUP2 LT PUSH2 0x4E8 JUMPI PUSH2 0x4E7 PUSH2 0x138F JUMP JUMPDEST JUMPDEST SWAP1 POP PUSH1 0x20 MUL DUP2 ADD SWAP1 PUSH2 0x4FA SWAP2 SWAP1 PUSH2 0x13CD JUMP JUMPDEST DUP3 PUSH2 0x847 JUMP JUMPDEST PUSH2 0x511 JUMPI PUSH1 0x0 SWAP5 POP POP POP POP POP PUSH2 0x52F JUMP JUMPDEST DUP1 DUP4 SUB SWAP3 POP POP PUSH2 0x520 DUP2 PUSH2 0x83A JUMP JUMPDEST SWAP1 POP PUSH2 0x472 JUMP JUMPDEST POP PUSH1 0x1 SWAP3 POP POP POP JUMPDEST SWAP5 SWAP4 POP POP POP POP JUMP JUMPDEST PUSH1 0x60 PUSH1 0x0 PUSH1 0x20 DUP4 MLOAD PUSH2 0x549 SWAP2 SWAP1 PUSH2 0x142F JUMP JUMPDEST PUSH8 0xFFFFFFFFFFFFFFFF DUP2 GT ISZERO PUSH2 0x562 JUMPI PUSH2 0x561 PUSH2 0xF7B JUMP JUMPDEST JUMPDEST PUSH1 0x40 MLOAD SWAP1 DUP1 DUP3 MSTORE DUP1 PUSH1 0x1F ADD PUSH1 0x1F NOT AND PUSH1 0x20 ADD DUP3 ADD PUSH1 0x40 MSTORE DUP1 ISZERO PUSH2 0x594 JUMPI DUP2 PUSH1 0x20 ADD PUSH1 0x1 DUP3 MUL DUP1 CALLDATASIZE DUP4 CALLDATACOPY DUP1 DUP3 ADD SWAP2 POP POP SWAP1 POP JUMPDEST POP SWAP1 POP PUSH1 0x20 DUP1 DUP3 ADD MSTORE PUSH1 0x0 JUMPDEST DUP4 MLOAD DUP2 LT ISZERO PUSH2 0x622 JUMPI DUP4 DUP2 DUP2 MLOAD DUP2 LT PUSH2 0x5BC JUMPI PUSH2 0x5BB PUSH2 0x138F JUMP JUMPDEST JUMPDEST PUSH1 0x20 ADD ADD MLOAD PUSH1 0xF8 SHR PUSH1 0xF8 SHL DUP3 PUSH1 0x20 DUP4 PUSH2 0x5D5 SWAP2 SWAP1 PUSH2 0x142F JUMP JUMPDEST DUP2 MLOAD DUP2 LT PUSH2 0x5E6 JUMPI PUSH2 0x5E5 PUSH2 0x138F JUMP JUMPDEST JUMPDEST PUSH1 0x20 ADD ADD SWAP1 PUSH31 0xFFFFFFFFFFFFFFFFFFFFFFFFFFFFFFFFFFFFFFFFFFFFFFFFFFFFFFFFFFFFFF NOT AND SWAP1 DUP2 PUSH1 0x0 BYTE SWAP1 MSTORE8 POP DUP1 DUP1 PUSH1 0x1 ADD SWAP2 POP POP PUSH2 0x5A0 JUMP JUMPDEST POP DUP1 SWAP2 POP POP SWAP2 SWAP1 POP JUMP JUMPDEST PUSH1 0x0 PUSH2 0x69A DUP5 DUP5 DUP1 DUP1 PUSH1 0x20 MUL PUSH1 0x20 ADD PUSH1 0x40 MLOAD SWAP1 DUP2 ADD PUSH1 0x40 MSTORE DUP1 SWAP4 SWAP3 SWAP2 SWAP1 DUP2 DUP2 MSTORE PUSH1 0x20 ADD DUP4 DUP4 PUSH1 0x20 MUL DUP1 DUP3 DUP5 CALLDATACOPY PUSH1 0x0 DUP2 DUP5 ADD MSTORE PUSH1 0x1F NOT PUSH1 0x1F DUP3 ADD AND SWAP1 POP DUP1 DUP4 ADD SWAP3 POP POP POP POP POP POP POP PUSH32 0x0 DUP5 PUSH2 0xAE7 JUMP JUMPDEST SWAP1 POP SWAP4 SWAP3 POP POP POP JUMP JUMPDEST PUSH1 0x0 PUSH2 0x6AD PUSH2 0x7A7 JUMP JUMPDEST PUSH2 0x6B7 DUP3 CALLVALUE PUSH2 0x82E JUMP JUMPDEST SWAP1 POP SWAP2 SWAP1 POP JUMP JUMPDEST PUSH1 0x0 PUSH2 0x6C8 PUSH2 0x7A7 JUMP JUMPDEST PUSH2 0x6D2 DUP3 CALLVALUE PUSH2 0x847 JUMP JUMPDEST SWAP1 POP SWAP2 SWAP1 POP JUMP JUMPDEST PUSH1 0x60 PUSH1 0x0 PUSH1 0x1 PUSH2 0x6E8 DUP5 PUSH2 0xAFE JUMP JUMPDEST ADD SWAP1 POP PUSH1 0x0 DUP2 PUSH8 0xFFFFFFFFFFFFFFFF DUP2 GT ISZERO PUSH2 0x707 JUMPI PUSH2 0x706 PUSH2 0xF7B JUMP JUMPDEST JUMPDEST PUSH1 0x40 MLOAD SWAP1 DUP1 DUP3 MSTORE DUP1 PUSH1 0x1F ADD PUSH1 0x1F NOT AND PUSH1 0x20 ADD DUP3 ADD PUSH1 0x40 MSTORE DUP1 ISZERO PUSH2 0x739 JUMPI DUP2 PUSH1 0x20 ADD PUSH1 0x1 DUP3 MUL DUP1 CALLDATASIZE DUP4 CALLDATACOPY DUP1 DUP3 ADD SWAP2 POP POP SWAP1 POP JUMPDEST POP SWAP1 POP PUSH1 0x0 DUP3 PUSH1 0x20 ADD DUP3 ADD SWAP1 POP JUMPDEST PUSH1 0x1 ISZERO PUSH2 0x79C JUMPI DUP1 DUP1 PUSH1 0x1 SWAP1 SUB SWAP2 POP POP PUSH32 0x3031323334353637383961626364656600000000000000000000000000000000 PUSH1 0xA DUP7 MOD BYTE DUP2 MSTORE8 PUSH1 0xA DUP6 DUP2 PUSH2 0x790 JUMPI PUSH2 0x78F PUSH2 0x1463 JUMP JUMPDEST JUMPDEST DIV SWAP5 POP PUSH1 0x0 DUP6 SUB PUSH2 0x747 JUMPI JUMPDEST DUP2 SWAP4 POP POP POP POP SWAP2 SWAP1 POP JUMP JUMPDEST PUSH32 0x0 PUSH20 0xFFFFFFFFFFFFFFFFFFFFFFFFFFFFFFFFFFFFFFFF AND CALLER PUSH20 0xFFFFFFFFFFFFFFFFFFFFFFFFFFFFFFFFFFFFFFFF AND EQ PUSH2 0x82C JUMPI PUSH1 0x40 MLOAD PUSH32 0x4CA8886700000000000000000000000000000000000000000000000000000000 DUP2 MSTORE PUSH1 0x4 ADD PUSH1 0x40 MLOAD DUP1 SWAP2 SUB SWAP1 REVERT JUMPDEST JUMP JUMPDEST PUSH1 0x0 PUSH1 0x1 SWAP1 POP SWAP3 SWAP2 POP POP JUMP JUMPDEST PUSH1 0x0 PUSH1 0x1 DUP3 ADD SWAP1 POP SWAP2 SWAP1 POP JUMP JUMPDEST PUSH1 0x0 DUP1 PUSH1 0x0 DUP5 PUSH1 0xE0 ADD PUSH1 0x20 DUP2 ADD SWAP1 PUSH2 0x85F SWAP2 SWAP1 PUSH2 0x14F0 JUMP JUMPDEST PUSH20 0xFFFFFFFFFFFFFFFFFFFFFFFFFFFFFFFFFFFFFFFF AND PUSH20 0xFFFFFFFFFFFFFFFFFFFFFFFFFFFFFFFFFFFFFFFF AND DUP2 MSTORE PUSH1 0x20 ADD SWAP1 DUP2 MSTORE PUSH1 0x20 ADD PUSH1 0x0 KECCAK256 PUSH1 0x0 SWAP1 SLOAD SWAP1 PUSH2 0x100 EXP SWAP1 DIV PUSH1 0xFF AND ISZERO PUSH2 0x8E7 JUMPI PUSH1 0x40 MLOAD PUSH32 0x8C379A000000000000000000000000000000000000000000000000000000000 DUP2 MSTORE PUSH1 0x4 ADD PUSH2 0x8DE SWAP1 PUSH2 0x1569 JUMP JUMPDEST PUSH1 0x40 MLOAD DUP1 SWAP2 SUB SWAP1 REVERT JUMPDEST PUSH2 0x8EF PUSH2 0xCE3 JUMP JUMPDEST PUSH1 0x60 PUSH1 0x0 DUP6 PUSH1 0xE0 ADD PUSH1 0x20 DUP2 ADD SWAP1 PUSH2 0x906 SWAP2 SWAP1 PUSH2 0x14F0 JUMP JUMPDEST PUSH1 0x40 MLOAD PUSH1 0x20 ADD PUSH2 0x916 SWAP2 SWAP1 PUSH2 0x15D1 JUMP JUMPDEST PUSH1 0x40 MLOAD PUSH1 0x20 DUP2 DUP4 SUB SUB DUP2 MSTORE SWAP1 PUSH1 0x40 MSTORE DUP1 MLOAD SWAP1 PUSH1 0x20 ADD KECCAK256 SWAP1 POP PUSH1 0x0 PUSH2 0x98C DUP8 DUP1 PUSH2 0x120 ADD SWAP1 PUSH2 0x944 SWAP2 SWAP1 PUSH2 0x15EC JUMP JUMPDEST DUP1 DUP1 PUSH1 0x1F ADD PUSH1 0x20 DUP1 SWAP2 DIV MUL PUSH1 0x20 ADD PUSH1 0x40 MLOAD SWAP1 DUP2 ADD PUSH1 0x40 MSTORE DUP1 SWAP4 SWAP3 SWAP2 SWAP1 DUP2 DUP2 MSTORE PUSH1 0x20 ADD DUP4 DUP4 DUP1 DUP3 DUP5 CALLDATACOPY PUSH1 0x0 DUP2 DUP5 ADD MSTORE PUSH1 0x1F NOT PUSH1 0x1F DUP3 ADD AND SWAP1 POP DUP1 DUP4 ADD SWAP3 POP POP POP POP POP POP POP PUSH2 0x537 JUMP JUMPDEST SWAP1 POP DUP1 DUP1 PUSH1 0x20 ADD SWAP1 MLOAD DUP2 ADD SWAP1 PUSH2 0x9A2 SWAP2 SWAP1 PUSH2 0x185F JUMP JUMPDEST SWAP4 POP DUP4 PUSH1 0x80 ADD MLOAD DUP1 PUSH1 0x20 ADD SWAP1 MLOAD DUP2 ADD SWAP1 PUSH2 0x9BC SWAP2 SWAP1 PUSH2 0x1980 JUMP JUMPDEST SWAP3 POP PUSH2 0x9E9 DUP4 PUSH32 0x0 DUP5 PUSH2 0xAE7 JUMP JUMPDEST PUSH2 0xA28 JUMPI PUSH1 0x40 MLOAD PUSH32 0x8C379A000000000000000000000000000000000000000000000000000000000 DUP2 MSTORE PUSH1 0x4 ADD PUSH2 0xA1F SWAP1 PUSH2 0x1A15 JUMP JUMPDEST PUSH1 0x40 MLOAD DUP1 SWAP2 SUB SWAP1 REVERT JUMPDEST PUSH32 0xBFF1A7735CBE7C6DAC1A1B7E22FDE7F383FA27B623BF82DDE4756CC2F6C498F1 DUP8 DUP1 PUSH2 0x120 ADD SWAP1 PUSH2 0xA5A SWAP2 SWAP1 PUSH2 0x15EC JUMP JUMPDEST PUSH1 0x40 MLOAD PUSH2 0xA68 SWAP3 SWAP2 SWAP1 PUSH2 0x1A62 JUMP JUMPDEST PUSH1 0x40 MLOAD DUP1 SWAP2 SUB SWAP1 LOG1 PUSH1 0x1 PUSH1 0x0 DUP1 DUP10 PUSH1 0xE0 ADD PUSH1 0x20 DUP2 ADD SWAP1 PUSH2 0xA88 SWAP2 SWAP1 PUSH2 0x14F0 JUMP JUMPDEST PUSH20 0xFFFFFFFFFFFFFFFFFFFFFFFFFFFFFFFFFFFFFFFF AND PUSH20 0xFFFFFFFFFFFFFFFFFFFFFFFFFFFFFFFFFFFFFFFF AND DUP2 MSTORE PUSH1 0x20 ADD SWAP1 DUP2 MSTORE PUSH1 0x20 ADD PUSH1 0x0 KECCAK256 PUSH1 0x0 PUSH2 0x100 EXP DUP2 SLOAD DUP2 PUSH1 0xFF MUL NOT AND SWAP1 DUP4 ISZERO ISZERO MUL OR SWAP1 SSTORE POP PUSH1 0x1 SWAP5 POP POP POP POP POP SWAP3 SWAP2 POP POP JUMP JUMPDEST PUSH1 0x0 DUP3 PUSH2 0xAF4 DUP6 DUP5 PUSH2 0xC51 JUMP JUMPDEST EQ SWAP1 POP SWAP4 SWAP3 POP POP POP JUMP JUMPDEST PUSH1 0x0 DUP1 PUSH1 0x0 SWAP1 POP PUSH27 0x184F03E93FF9F4DAA797ED6E38ED64BF6A1F010000000000000000 DUP4 LT PUSH2 0xB5C JUMPI PUSH27 0x184F03E93FF9F4DAA797ED6E38ED64BF6A1F010000000000000000 DUP4 DUP2 PUSH2 0xB52 JUMPI PUSH2 0xB51 PUSH2 0x1463 JUMP JUMPDEST JUMPDEST DIV SWAP3 POP PUSH1 0x40 DUP2 ADD SWAP1 POP JUMPDEST PUSH14 0x4EE2D6D415B85ACEF8100000000 DUP4 LT PUSH2 0xB99 JUMPI PUSH14 0x4EE2D6D415B85ACEF8100000000 DUP4 DUP2 PUSH2 0xB8F JUMPI PUSH2 0xB8E PUSH2 0x1463 JUMP JUMPDEST JUMPDEST DIV SWAP3 POP PUSH1 0x20 DUP2 ADD SWAP1 POP JUMPDEST PUSH7 0x2386F26FC10000 DUP4 LT PUSH2 0xBC8 JUMPI PUSH7 0x2386F26FC10000 DUP4 DUP2 PUSH2 0xBBE JUMPI PUSH2 0xBBD PUSH2 0x1463 JUMP JUMPDEST JUMPDEST DIV SWAP3 POP PUSH1 0x10 DUP2 ADD SWAP1 POP JUMPDEST PUSH4 0x5F5E100 DUP4 LT PUSH2 0xBF1 JUMPI PUSH4 0x5F5E100 DUP4 DUP2 PUSH2 0xBE7 JUMPI PUSH2 0xBE6 PUSH2 0x1463 JUMP JUMPDEST JUMPDEST DIV SWAP3 POP PUSH1 0x8 DUP2 ADD SWAP1 POP JUMPDEST PUSH2 0x2710 DUP4 LT PUSH2 0xC16 JUMPI PUSH2 0x2710 DUP4 DUP2 PUSH2 0xC0C JUMPI PUSH2 0xC0B PUSH2 0x1463 JUMP JUMPDEST JUMPDEST DIV SWAP3 POP PUSH1 0x4 DUP2 ADD SWAP1 POP JUMPDEST PUSH1 0x64 DUP4 LT PUSH2 0xC39 JUMPI PUSH1 0x64 DUP4 DUP2 PUSH2 0xC2F JUMPI PUSH2 0xC2E PUSH2 0x1463 JUMP JUMPDEST JUMPDEST DIV SWAP3 POP PUSH1 0x2 DUP2 ADD SWAP1 POP JUMPDEST PUSH1 0xA DUP4 LT PUSH2 0xC48 JUMPI PUSH1 0x1 DUP2 ADD SWAP1 POP JUMPDEST DUP1 SWAP2 POP POP SWAP2 SWAP1 POP JUMP JUMPDEST PUSH1 0x0 DUP1 DUP3 SWAP1 POP PUSH1 0x0 JUMPDEST DUP5 MLOAD DUP2 LT ISZERO PUSH2 0xC96 JUMPI PUSH2 0xC87 DUP3 DUP7 DUP4 DUP2 MLOAD DUP2 LT PUSH2 0xC7A JUMPI PUSH2 0xC79 PUSH2 0x138F JUMP JUMPDEST JUMPDEST PUSH1 0x20 MUL PUSH1 0x20 ADD ADD MLOAD PUSH2 0xCA1 JUMP JUMPDEST SWAP2 POP DUP1 DUP1 PUSH1 0x1 ADD SWAP2 POP POP PUSH2 0xC5A JUMP JUMPDEST POP DUP1 SWAP2 POP POP SWAP3 SWAP2 POP POP JUMP JUMPDEST PUSH1 0x0 DUP2 DUP4 LT PUSH2 0xCB9 JUMPI PUSH2 0xCB4 DUP3 DUP5 PUSH2 0xCCC JUMP JUMPDEST PUSH2 0xCC4 JUMP JUMPDEST PUSH2 0xCC3 DUP4 DUP4 PUSH2 0xCCC JUMP JUMPDEST JUMPDEST SWAP1 POP SWAP3 SWAP2 POP POP JUMP JUMPDEST PUSH1 0x0 DUP3 PUSH1 0x0 MSTORE DUP2 PUSH1 0x20 MSTORE PUSH1 0x40 PUSH1 0x0 KECCAK256 SWAP1 POP SWAP3 SWAP2 POP POP JUMP JUMPDEST PUSH1 0x40 MLOAD DUP1 PUSH1 0xA0 ADD PUSH1 0x40 MSTORE DUP1 PUSH1 0x0 PUSH20 0xFFFFFFFFFFFFFFFFFFFFFFFFFFFFFFFFFFFFFFFF AND DUP2 MSTORE PUSH1 0x20 ADD PUSH1 0x60 DUP2 MSTORE PUSH1 0x20 ADD PUSH1 0x0 PUSH20 0xFFFFFFFFFFFFFFFFFFFFFFFFFFFFFFFFFFFFFFFF AND DUP2 MSTORE PUSH1 0x20 ADD PUSH1 0x60 DUP2 MSTORE PUSH1 0x20 ADD PUSH1 0x60 DUP2 MSTORE POP SWAP1 JUMP JUMPDEST PUSH1 0x0 DUP2 MLOAD SWAP1 POP SWAP2 SWAP1 POP JUMP JUMPDEST PUSH1 0x0 DUP3 DUP3 MSTORE PUSH1 0x20 DUP3 ADD SWAP1 POP SWAP3 SWAP2 POP POP JUMP JUMPDEST PUSH1 0x0 JUMPDEST DUP4 DUP2 LT ISZERO PUSH2 0xD78 JUMPI DUP1 DUP3 ADD MLOAD DUP2 DUP5 ADD MSTORE PUSH1 0x20 DUP2 ADD SWAP1 POP PUSH2 0xD5D JUMP JUMPDEST PUSH1 0x0 DUP5 DUP5 ADD MSTORE POP POP POP POP JUMP JUMPDEST PUSH1 0x0 PUSH1 0x1F NOT PUSH1 0x1F DUP4 ADD AND SWAP1 POP SWAP2 SWAP1 POP JUMP JUMPDEST PUSH1 0x0 PUSH2 0xDA0 DUP3 PUSH2 0xD3E JUMP JUMPDEST PUSH2 0xDAA DUP2 DUP6 PUSH2 0xD49 JUMP JUMPDEST SWAP4 POP PUSH2 0xDBA DUP2 DUP6 PUSH1 0x20 DUP7 ADD PUSH2 0xD5A JUMP JUMPDEST PUSH2 0xDC3 DUP2 PUSH2 0xD84 JUMP JUMPDEST DUP5 ADD SWAP2 POP POP SWAP3 SWAP2 POP POP JUMP JUMPDEST PUSH1 0x0 PUSH1 0x20 DUP3 ADD SWAP1 POP DUP2 DUP2 SUB PUSH1 0x0 DUP4 ADD MSTORE PUSH2 0xDE8 DUP2 DUP5 PUSH2 0xD95 JUMP JUMPDEST SWAP1 POP SWAP3 SWAP2 POP POP JUMP JUMPDEST PUSH1 0x0 PUSH1 0x40 MLOAD SWAP1 POP SWAP1 JUMP JUMPDEST PUSH1 0x0 DUP1 REVERT JUMPDEST PUSH1 0x0 DUP1 REVERT JUMPDEST PUSH1 0x0 DUP1 REVERT JUMPDEST PUSH1 0x0 DUP1 REVERT JUMPDEST PUSH1 0x0 DUP1 REVERT JUMPDEST PUSH1 0x0 DUP1 DUP4 PUSH1 0x1F DUP5 ADD SLT PUSH2 0xE29 JUMPI PUSH2 0xE28 PUSH2 0xE04 JUMP JUMPDEST JUMPDEST DUP3 CALLDATALOAD SWAP1 POP PUSH8 0xFFFFFFFFFFFFFFFF DUP2 GT ISZERO PUSH2 0xE46 JUMPI PUSH2 0xE45 PUSH2 0xE09 JUMP JUMPDEST JUMPDEST PUSH1 0x20 DUP4 ADD SWAP2 POP DUP4 PUSH1 0x20 DUP3 MUL DUP4 ADD GT ISZERO PUSH2 0xE62 JUMPI PUSH2 0xE61 PUSH2 0xE0E JUMP JUMPDEST JUMPDEST SWAP3 POP SWAP3 SWAP1 POP JUMP JUMPDEST PUSH1 0x0 DUP1 DUP4 PUSH1 0x1F DUP5 ADD SLT PUSH2 0xE7F JUMPI PUSH2 0xE7E PUSH2 0xE04 JUMP JUMPDEST JUMPDEST DUP3 CALLDATALOAD SWAP1 POP PUSH8 0xFFFFFFFFFFFFFFFF DUP2 GT ISZERO PUSH2 0xE9C JUMPI PUSH2 0xE9B PUSH2 0xE09 JUMP JUMPDEST JUMPDEST PUSH1 0x20 DUP4 ADD SWAP2 POP DUP4 PUSH1 0x20 DUP3 MUL DUP4 ADD GT ISZERO PUSH2 0xEB8 JUMPI PUSH2 0xEB7 PUSH2 0xE0E JUMP JUMPDEST JUMPDEST SWAP3 POP SWAP3 SWAP1 POP JUMP JUMPDEST PUSH1 0x0 DUP1 PUSH1 0x0 DUP1 PUSH1 0x40 DUP6 DUP8 SUB SLT ISZERO PUSH2 0xED9 JUMPI PUSH2 0xED8 PUSH2 0xDFA JUMP JUMPDEST JUMPDEST PUSH1 0x0 DUP6 ADD CALLDATALOAD PUSH8 0xFFFFFFFFFFFFFFFF DUP2 GT ISZERO PUSH2 0xEF7 JUMPI PUSH2 0xEF6 PUSH2 0xDFF JUMP JUMPDEST JUMPDEST PUSH2 0xF03 DUP8 DUP3 DUP9 ADD PUSH2 0xE13 JUMP JUMPDEST SWAP5 POP SWAP5 POP POP PUSH1 0x20 DUP6 ADD CALLDATALOAD PUSH8 0xFFFFFFFFFFFFFFFF DUP2 GT ISZERO PUSH2 0xF26 JUMPI PUSH2 0xF25 PUSH2 0xDFF JUMP JUMPDEST JUMPDEST PUSH2 0xF32 DUP8 DUP3 DUP9 ADD PUSH2 0xE69 JUMP JUMPDEST SWAP3 POP SWAP3 POP POP SWAP3 SWAP6 SWAP2 SWAP5 POP SWAP3 POP JUMP JUMPDEST PUSH1 0x0 DUP2 ISZERO ISZERO SWAP1 POP SWAP2 SWAP1 POP JUMP JUMPDEST PUSH2 0xF55 DUP2 PUSH2 0xF40 JUMP JUMPDEST DUP3 MSTORE POP POP JUMP JUMPDEST PUSH1 0x0 PUSH1 0x20 DUP3 ADD SWAP1 POP PUSH2 0xF70 PUSH1 0x0 DUP4 ADD DUP5 PUSH2 0xF4C JUMP JUMPDEST SWAP3 SWAP2 POP POP JUMP JUMPDEST PUSH1 0x0 DUP1 REVERT JUMPDEST PUSH32 0x4E487B7100000000000000000000000000000000000000000000000000000000 PUSH1 0x0 MSTORE PUSH1 0x41 PUSH1 0x4 MSTORE PUSH1 0x24 PUSH1 0x0 REVERT JUMPDEST PUSH2 0xFB3 DUP3 PUSH2 0xD84 JUMP JUMPDEST DUP2 ADD DUP2 DUP2 LT PUSH8 0xFFFFFFFFFFFFFFFF DUP3 GT OR ISZERO PUSH2 0xFD2 JUMPI PUSH2 0xFD1 PUSH2 0xF7B JUMP JUMPDEST JUMPDEST DUP1 PUSH1 0x40 MSTORE POP POP POP JUMP JUMPDEST PUSH1 0x0 PUSH2 0xFE5 PUSH2 0xDF0 JUMP JUMPDEST SWAP1 POP PUSH2 0xFF1 DUP3 DUP3 PUSH2 0xFAA JUMP JUMPDEST SWAP2 SWAP1 POP JUMP JUMPDEST PUSH1 0x0 PUSH8 0xFFFFFFFFFFFFFFFF DUP3 GT ISZERO PUSH2 0x1011 JUMPI PUSH2 0x1010 PUSH2 0xF7B JUMP JUMPDEST JUMPDEST PUSH2 0x101A DUP3 PUSH2 0xD84 JUMP JUMPDEST SWAP1 POP PUSH1 0x20 DUP2 ADD SWAP1 POP SWAP2 SWAP1 POP JUMP JUMPDEST DUP3 DUP2 DUP4 CALLDATACOPY PUSH1 0x0 DUP4 DUP4 ADD MSTORE POP POP POP JUMP JUMPDEST PUSH1 0x0 PUSH2 0x1049 PUSH2 0x1044 DUP5 PUSH2 0xFF6 JUMP JUMPDEST PUSH2 0xFDB JUMP JUMPDEST SWAP1 POP DUP3 DUP2 MSTORE PUSH1 0x20 DUP2 ADD DUP5 DUP5 DUP5 ADD GT ISZERO PUSH2 0x1065 JUMPI PUSH2 0x1064 PUSH2 0xF76 JUMP JUMPDEST JUMPDEST PUSH2 0x1070 DUP5 DUP3 DUP6 PUSH2 0x1027 JUMP JUMPDEST POP SWAP4 SWAP3 POP POP POP JUMP JUMPDEST PUSH1 0x0 DUP3 PUSH1 0x1F DUP4 ADD SLT PUSH2 0x108D JUMPI PUSH2 0x108C PUSH2 0xE04 JUMP JUMPDEST JUMPDEST DUP2 CALLDATALOAD PUSH2 0x109D DUP5 DUP3 PUSH1 0x20 DUP7 ADD PUSH2 0x1036 JUMP JUMPDEST SWAP2 POP POP SWAP3 SWAP2 POP POP JUMP JUMPDEST PUSH1 0x0 PUSH1 0x20 DUP3 DUP5 SUB SLT ISZERO PUSH2 0x10BC JUMPI PUSH2 0x10BB PUSH2 0xDFA JUMP JUMPDEST JUMPDEST PUSH1 0x0 DUP3 ADD CALLDATALOAD PUSH8 0xFFFFFFFFFFFFFFFF DUP2 GT ISZERO PUSH2 0x10DA JUMPI PUSH2 0x10D9 PUSH2 0xDFF JUMP JUMPDEST JUMPDEST PUSH2 0x10E6 DUP5 DUP3 DUP6 ADD PUSH2 0x1078 JUMP JUMPDEST SWAP2 POP POP SWAP3 SWAP2 POP POP JUMP JUMPDEST PUSH1 0x0 DUP2 MLOAD SWAP1 POP SWAP2 SWAP1 POP JUMP JUMPDEST PUSH1 0x0 DUP3 DUP3 MSTORE PUSH1 0x20 DUP3 ADD SWAP1 POP SWAP3 SWAP2 POP POP JUMP JUMPDEST PUSH1 0x0 PUSH2 0x1116 DUP3 PUSH2 0x10EF JUMP JUMPDEST PUSH2 0x1120 DUP2 DUP6 PUSH2 0x10FA JUMP JUMPDEST SWAP4 POP PUSH2 0x1130 DUP2 DUP6 PUSH1 0x20 DUP7 ADD PUSH2 0xD5A JUMP JUMPDEST PUSH2 0x1139 DUP2 PUSH2 0xD84 JUMP JUMPDEST DUP5 ADD SWAP2 POP POP SWAP3 SWAP2 POP POP JUMP JUMPDEST PUSH1 0x0 PUSH1 0x20 DUP3 ADD SWAP1 POP DUP2 DUP2 SUB PUSH1 0x0 DUP4 ADD MSTORE PUSH2 0x115E DUP2 DUP5 PUSH2 0x110B JUMP JUMPDEST SWAP1 POP SWAP3 SWAP2 POP POP JUMP JUMPDEST PUSH1 0x0 DUP1 DUP4 PUSH1 0x1F DUP5 ADD SLT PUSH2 0x117C JUMPI PUSH2 0x117B PUSH2 0xE04 JUMP JUMPDEST JUMPDEST DUP3 CALLDATALOAD SWAP1 POP PUSH8 0xFFFFFFFFFFFFFFFF DUP2 GT ISZERO PUSH2 0x1199 JUMPI PUSH2 0x1198 PUSH2 0xE09 JUMP JUMPDEST JUMPDEST PUSH1 0x20 DUP4 ADD SWAP2 POP DUP4 PUSH1 0x20 DUP3 MUL DUP4 ADD GT ISZERO PUSH2 0x11B5 JUMPI PUSH2 0x11B4 PUSH2 0xE0E JUMP JUMPDEST JUMPDEST SWAP3 POP SWAP3 SWAP1 POP JUMP JUMPDEST PUSH1 0x0 DUP2 SWAP1 POP SWAP2 SWAP1 POP JUMP JUMPDEST PUSH2 0x11CF DUP2 PUSH2 0x11BC JUMP JUMPDEST DUP2 EQ PUSH2 0x11DA JUMPI PUSH1 0x0 DUP1 REVERT JUMPDEST POP JUMP JUMPDEST PUSH1 0x0 DUP2 CALLDATALOAD SWAP1 POP PUSH2 0x11EC DUP2 PUSH2 0x11C6 JUMP JUMPDEST SWAP3 SWAP2 POP POP JUMP JUMPDEST PUSH1 0x0 DUP1 PUSH1 0x0 PUSH1 0x40 DUP5 DUP7 SUB SLT ISZERO PUSH2 0x120B JUMPI PUSH2 0x120A PUSH2 0xDFA JUMP JUMPDEST JUMPDEST PUSH1 0x0 DUP5 ADD CALLDATALOAD PUSH8 0xFFFFFFFFFFFFFFFF DUP2 GT ISZERO PUSH2 0x1229 JUMPI PUSH2 0x1228 PUSH2 0xDFF JUMP JUMPDEST JUMPDEST PUSH2 0x1235 DUP7 DUP3 DUP8 ADD PUSH2 0x1166 JUMP JUMPDEST SWAP4 POP SWAP4 POP POP PUSH1 0x20 PUSH2 0x1248 DUP7 DUP3 DUP8 ADD PUSH2 0x11DD JUMP JUMPDEST SWAP2 POP POP SWAP3 POP SWAP3 POP SWAP3 JUMP JUMPDEST PUSH1 0x0 DUP1 REVERT JUMPDEST PUSH1 0x0 PUSH2 0x140 DUP3 DUP5 SUB SLT ISZERO PUSH2 0x126E JUMPI PUSH2 0x126D PUSH2 0x1252 JUMP JUMPDEST JUMPDEST DUP2 SWAP1 POP SWAP3 SWAP2 POP POP JUMP JUMPDEST PUSH1 0x0 PUSH1 0x20 DUP3 DUP5 SUB SLT ISZERO PUSH2 0x128D JUMPI PUSH2 0x128C PUSH2 0xDFA JUMP JUMPDEST JUMPDEST PUSH1 0x0 DUP3 ADD CALLDATALOAD PUSH8 0xFFFFFFFFFFFFFFFF DUP2 GT ISZERO PUSH2 0x12AB JUMPI PUSH2 0x12AA PUSH2 0xDFF JUMP JUMPDEST JUMPDEST PUSH2 0x12B7 DUP5 DUP3 DUP6 ADD PUSH2 0x1257 JUMP JUMPDEST SWAP2 POP POP SWAP3 SWAP2 POP POP JUMP JUMPDEST PUSH1 0x0 DUP2 SWAP1 POP SWAP3 SWAP2 POP POP JUMP JUMPDEST PUSH1 0x0 PUSH2 0x12D6 DUP3 PUSH2 0xD3E JUMP JUMPDEST PUSH2 0x12E0 DUP2 DUP6 PUSH2 0x12C0 JUMP JUMPDEST SWAP4 POP PUSH2 0x12F0 DUP2 DUP6 PUSH1 0x20 DUP7 ADD PUSH2 0xD5A JUMP JUMPDEST DUP1 DUP5 ADD SWAP2 POP POP SWAP3 SWAP2 POP POP JUMP JUMPDEST PUSH32 0x2E00000000000000000000000000000000000000000000000000000000000000 PUSH1 0x0 DUP3 ADD MSTORE POP JUMP JUMPDEST PUSH1 0x0 PUSH2 0x1332 PUSH1 0x1 DUP4 PUSH2 0x12C0 JUMP JUMPDEST SWAP2 POP PUSH2 0x133D DUP3 PUSH2 0x12FC JUMP JUMPDEST PUSH1 0x1 DUP3 ADD SWAP1 POP SWAP2 SWAP1 POP JUMP JUMPDEST PUSH1 0x0 PUSH2 0x1354 DUP3 DUP7 PUSH2 0x12CB JUMP JUMPDEST SWAP2 POP PUSH2 0x135F DUP3 PUSH2 0x1325 JUMP JUMPDEST SWAP2 POP PUSH2 0x136B DUP3 DUP6 PUSH2 0x12CB JUMP JUMPDEST SWAP2 POP PUSH2 0x1376 DUP3 PUSH2 0x1325 JUMP JUMPDEST SWAP2 POP PUSH2 0x1382 DUP3 DUP5 PUSH2 0x12CB JUMP JUMPDEST SWAP2 POP DUP2 SWAP1 POP SWAP5 SWAP4 POP POP POP POP JUMP JUMPDEST PUSH32 0x4E487B7100000000000000000000000000000000000000000000000000000000 PUSH1 0x0 MSTORE PUSH1 0x32 PUSH1 0x4 MSTORE PUSH1 0x24 PUSH1 0x0 REVERT JUMPDEST PUSH1 0x0 DUP1 REVERT JUMPDEST PUSH1 0x0 DUP1 REVERT JUMPDEST PUSH1 0x0 DUP1 REVERT JUMPDEST PUSH1 0x0 DUP3 CALLDATALOAD PUSH1 0x1 PUSH2 0x140 SUB DUP4 CALLDATASIZE SUB SUB DUP2 SLT PUSH2 0x13EA JUMPI PUSH2 0x13E9 PUSH2 0x13BE JUMP JUMPDEST JUMPDEST DUP1 DUP4 ADD SWAP2 POP POP SWAP3 SWAP2 POP POP JUMP JUMPDEST PUSH1 0x0 DUP2 SWAP1 POP SWAP2 SWAP1 POP JUMP JUMPDEST PUSH32 0x4E487B7100000000000000000000000000000000000000000000000000000000 PUSH1 0x0 MSTORE PUSH1 0x11 PUSH1 0x4 MSTORE PUSH1 0x24 PUSH1 0x0 REVERT JUMPDEST PUSH1 0x0 PUSH2 0x143A DUP3 PUSH2 0x13F6 JUMP JUMPDEST SWAP2 POP PUSH2 0x1445 DUP4 PUSH2 0x13F6 JUMP JUMPDEST SWAP3 POP DUP3 DUP3 ADD SWAP1 POP DUP1 DUP3 GT ISZERO PUSH2 0x145D JUMPI PUSH2 0x145C PUSH2 0x1400 JUMP JUMPDEST JUMPDEST SWAP3 SWAP2 POP POP JUMP JUMPDEST PUSH32 0x4E487B7100000000000000000000000000000000000000000000000000000000 PUSH1 0x0 MSTORE PUSH1 0x12 PUSH1 0x4 MSTORE PUSH1 0x24 PUSH1 0x0 REVERT JUMPDEST PUSH1 0x0 PUSH20 0xFFFFFFFFFFFFFFFFFFFFFFFFFFFFFFFFFFFFFFFF DUP3 AND SWAP1 POP SWAP2 SWAP1 POP JUMP JUMPDEST PUSH1 0x0 PUSH2 0x14BD DUP3 PUSH2 0x1492 JUMP JUMPDEST SWAP1 POP SWAP2 SWAP1 POP JUMP JUMPDEST PUSH2 0x14CD DUP2 PUSH2 0x14B2 JUMP JUMPDEST DUP2 EQ PUSH2 0x14D8 JUMPI PUSH1 0x0 DUP1 REVERT JUMPDEST POP JUMP JUMPDEST PUSH1 0x0 DUP2 CALLDATALOAD SWAP1 POP PUSH2 0x14EA DUP2 PUSH2 0x14C4 JUMP JUMPDEST SWAP3 SWAP2 POP POP JUMP JUMPDEST PUSH1 0x0 PUSH1 0x20 DUP3 DUP5 SUB SLT ISZERO PUSH2 0x1506 JUMPI PUSH2 0x1505 PUSH2 0xDFA JUMP JUMPDEST JUMPDEST PUSH1 0x0 PUSH2 0x1514 DUP5 DUP3 DUP6 ADD PUSH2 0x14DB JUMP JUMPDEST SWAP2 POP POP SWAP3 SWAP2 POP POP JUMP JUMPDEST PUSH32 0x557365722068617320616C726561647920617474657374656400000000000000 PUSH1 0x0 DUP3 ADD MSTORE POP JUMP JUMPDEST PUSH1 0x0 PUSH2 0x1553 PUSH1 0x19 DUP4 PUSH2 0xD49 JUMP JUMPDEST SWAP2 POP PUSH2 0x155E DUP3 PUSH2 0x151D JUMP JUMPDEST PUSH1 0x20 DUP3 ADD SWAP1 POP SWAP2 SWAP1 POP JUMP JUMPDEST PUSH1 0x0 PUSH1 0x20 DUP3 ADD SWAP1 POP DUP2 DUP2 SUB PUSH1 0x0 DUP4 ADD MSTORE PUSH2 0x1582 DUP2 PUSH2 0x1546 JUMP JUMPDEST SWAP1 POP SWAP2 SWAP1 POP JUMP JUMPDEST PUSH1 0x0 DUP2 PUSH1 0x60 SHL SWAP1 POP SWAP2 SWAP1 POP JUMP JUMPDEST PUSH1 0x0 PUSH2 0x15A1 DUP3 PUSH2 0x1589 JUMP JUMPDEST SWAP1 POP SWAP2 SWAP1 POP JUMP JUMPDEST PUSH1 0x0 PUSH2 0x15B3 DUP3 PUSH2 0x1596 JUMP JUMPDEST SWAP1 POP SWAP2 SWAP1 POP JUMP JUMPDEST PUSH2 0x15CB PUSH2 0x15C6 DUP3 PUSH2 0x14B2 JUMP JUMPDEST PUSH2 0x15A8 JUMP JUMPDEST DUP3 MSTORE POP POP JUMP JUMPDEST PUSH1 0x0 PUSH2 0x15DD DUP3 DUP5 PUSH2 0x15BA JUMP JUMPDEST PUSH1 0x14 DUP3 ADD SWAP2 POP DUP2 SWAP1 POP SWAP3 SWAP2 POP POP JUMP JUMPDEST PUSH1 0x0 DUP1 DUP4 CALLDATALOAD PUSH1 0x1 PUSH1 0x20 SUB DUP5 CALLDATASIZE SUB SUB DUP2 SLT PUSH2 0x1609 JUMPI PUSH2 0x1608 PUSH2 0x13BE JUMP JUMPDEST JUMPDEST DUP1 DUP5 ADD SWAP3 POP DUP3 CALLDATALOAD SWAP2 POP PUSH8 0xFFFFFFFFFFFFFFFF DUP3 GT ISZERO PUSH2 0x162B JUMPI PUSH2 0x162A PUSH2 0x13C3 JUMP JUMPDEST JUMPDEST PUSH1 0x20 DUP4 ADD SWAP3 POP PUSH1 0x1 DUP3 MUL CALLDATASIZE SUB DUP4 SGT ISZERO PUSH2 0x1647 JUMPI PUSH2 0x1646 PUSH2 0x13C8 JUMP JUMPDEST JUMPDEST POP SWAP3 POP SWAP3 SWAP1 POP JUMP JUMPDEST PUSH1 0x0 DUP1 REVERT JUMPDEST PUSH1 0x0 DUP1 REVERT JUMPDEST PUSH1 0x0 DUP2 MLOAD SWAP1 POP PUSH2 0x1668 DUP2 PUSH2 0x14C4 JUMP JUMPDEST SWAP3 SWAP2 POP POP JUMP JUMPDEST PUSH1 0x0 PUSH8 0xFFFFFFFFFFFFFFFF DUP3 GT ISZERO PUSH2 0x1689 JUMPI PUSH2 0x1688 PUSH2 0xF7B JUMP JUMPDEST JUMPDEST PUSH2 0x1692 DUP3 PUSH2 0xD84 JUMP JUMPDEST SWAP1 POP PUSH1 0x20 DUP2 ADD SWAP1 POP SWAP2 SWAP1 POP JUMP JUMPDEST PUSH1 0x0 PUSH2 0x16B2 PUSH2 0x16AD DUP5 PUSH2 0x166E JUMP JUMPDEST PUSH2 0xFDB JUMP JUMPDEST SWAP1 POP DUP3 DUP2 MSTORE PUSH1 0x20 DUP2 ADD DUP5 DUP5 DUP5 ADD GT ISZERO PUSH2 0x16CE JUMPI PUSH2 0x16CD PUSH2 0xF76 JUMP JUMPDEST JUMPDEST PUSH2 0x16D9 DUP5 DUP3 DUP6 PUSH2 0xD5A JUMP JUMPDEST POP SWAP4 SWAP3 POP POP POP JUMP JUMPDEST PUSH1 0x0 DUP3 PUSH1 0x1F DUP4 ADD SLT PUSH2 0x16F6 JUMPI PUSH2 0x16F5 PUSH2 0xE04 JUMP JUMPDEST JUMPDEST DUP2 MLOAD PUSH2 0x1706 DUP5 DUP3 PUSH1 0x20 DUP7 ADD PUSH2 0x169F JUMP JUMPDEST SWAP2 POP POP SWAP3 SWAP2 POP POP JUMP JUMPDEST PUSH1 0x0 PUSH2 0x1722 PUSH2 0x171D DUP5 PUSH2 0xFF6 JUMP JUMPDEST PUSH2 0xFDB JUMP JUMPDEST SWAP1 POP DUP3 DUP2 MSTORE PUSH1 0x20 DUP2 ADD DUP5 DUP5 DUP5 ADD GT ISZERO PUSH2 0x173E JUMPI PUSH2 0x173D PUSH2 0xF76 JUMP JUMPDEST JUMPDEST PUSH2 0x1749 DUP5 DUP3 DUP6 PUSH2 0xD5A JUMP JUMPDEST POP SWAP4 SWAP3 POP POP POP JUMP JUMPDEST PUSH1 0x0 DUP3 PUSH1 0x1F DUP4 ADD SLT PUSH2 0x1766 JUMPI PUSH2 0x1765 PUSH2 0xE04 JUMP JUMPDEST JUMPDEST DUP2 MLOAD PUSH2 0x1776 DUP5 DUP3 PUSH1 0x20 DUP7 ADD PUSH2 0x170F JUMP JUMPDEST SWAP2 POP POP SWAP3 SWAP2 POP POP JUMP JUMPDEST PUSH1 0x0 PUSH1 0xA0 DUP3 DUP5 SUB SLT ISZERO PUSH2 0x1795 JUMPI PUSH2 0x1794 PUSH2 0x164F JUMP JUMPDEST JUMPDEST PUSH2 0x179F PUSH1 0xA0 PUSH2 0xFDB JUMP JUMPDEST SWAP1 POP PUSH1 0x0 PUSH2 0x17AF DUP5 DUP3 DUP6 ADD PUSH2 0x1659 JUMP JUMPDEST PUSH1 0x0 DUP4 ADD MSTORE POP PUSH1 0x20 DUP3 ADD MLOAD PUSH8 0xFFFFFFFFFFFFFFFF DUP2 GT ISZERO PUSH2 0x17D3 JUMPI PUSH2 0x17D2 PUSH2 0x1654 JUMP JUMPDEST JUMPDEST PUSH2 0x17DF DUP5 DUP3 DUP6 ADD PUSH2 0x16E1 JUMP JUMPDEST PUSH1 0x20 DUP4 ADD MSTORE POP PUSH1 0x40 PUSH2 0x17F3 DUP5 DUP3 DUP6 ADD PUSH2 0x1659 JUMP JUMPDEST PUSH1 0x40 DUP4 ADD MSTORE POP PUSH1 0x60 DUP3 ADD MLOAD PUSH8 0xFFFFFFFFFFFFFFFF DUP2 GT ISZERO PUSH2 0x1817 JUMPI PUSH2 0x1816 PUSH2 0x1654 JUMP JUMPDEST JUMPDEST PUSH2 0x1823 DUP5 DUP3 DUP6 ADD PUSH2 0x16E1 JUMP JUMPDEST PUSH1 0x60 DUP4 ADD MSTORE POP PUSH1 0x80 DUP3 ADD MLOAD PUSH8 0xFFFFFFFFFFFFFFFF DUP2 GT ISZERO PUSH2 0x1847 JUMPI PUSH2 0x1846 PUSH2 0x1654 JUMP JUMPDEST JUMPDEST PUSH2 0x1853 DUP5 DUP3 DUP6 ADD PUSH2 0x1751 JUMP JUMPDEST PUSH1 0x80 DUP4 ADD MSTORE POP SWAP3 SWAP2 POP POP JUMP JUMPDEST PUSH1 0x0 PUSH1 0x20 DUP3 DUP5 SUB SLT ISZERO PUSH2 0x1875 JUMPI PUSH2 0x1874 PUSH2 0xDFA JUMP JUMPDEST JUMPDEST PUSH1 0x0 DUP3 ADD MLOAD PUSH8 0xFFFFFFFFFFFFFFFF DUP2 GT ISZERO PUSH2 0x1893 JUMPI PUSH2 0x1892 PUSH2 0xDFF JUMP JUMPDEST JUMPDEST PUSH2 0x189F DUP5 DUP3 DUP6 ADD PUSH2 0x177F JUMP JUMPDEST SWAP2 POP POP SWAP3 SWAP2 POP POP JUMP JUMPDEST PUSH1 0x0 PUSH8 0xFFFFFFFFFFFFFFFF DUP3 GT ISZERO PUSH2 0x18C3 JUMPI PUSH2 0x18C2 PUSH2 0xF7B JUMP JUMPDEST JUMPDEST PUSH1 0x20 DUP3 MUL SWAP1 POP PUSH1 0x20 DUP2 ADD SWAP1 POP SWAP2 SWAP1 POP JUMP JUMPDEST PUSH1 0x0 DUP2 MLOAD SWAP1 POP PUSH2 0x18E3 DUP2 PUSH2 0x11C6 JUMP JUMPDEST SWAP3 SWAP2 POP POP JUMP JUMPDEST PUSH1 0x0 PUSH2 0x18FC PUSH2 0x18F7 DUP5 PUSH2 0x18A8 JUMP JUMPDEST PUSH2 0xFDB JUMP JUMPDEST SWAP1 POP DUP1 DUP4 DUP3 MSTORE PUSH1 0x20 DUP3 ADD SWAP1 POP PUSH1 0x20 DUP5 MUL DUP4 ADD DUP6 DUP2 GT ISZERO PUSH2 0x191F JUMPI PUSH2 0x191E PUSH2 0xE0E JUMP JUMPDEST JUMPDEST DUP4 JUMPDEST DUP2 DUP2 LT ISZERO PUSH2 0x1948 JUMPI DUP1 PUSH2 0x1934 DUP9 DUP3 PUSH2 0x18D4 JUMP JUMPDEST DUP5 MSTORE PUSH1 0x20 DUP5 ADD SWAP4 POP POP PUSH1 0x20 DUP2 ADD SWAP1 POP PUSH2 0x1921 JUMP JUMPDEST POP POP POP SWAP4 SWAP3 POP POP POP JUMP JUMPDEST PUSH1 0x0 DUP3 PUSH1 0x1F DUP4 ADD SLT PUSH2 0x1967 JUMPI PUSH2 0x1966 PUSH2 0xE04 JUMP JUMPDEST JUMPDEST DUP2 MLOAD PUSH2 0x1977 DUP5 DUP3 PUSH1 0x20 DUP7 ADD PUSH2 0x18E9 JUMP JUMPDEST SWAP2 POP POP SWAP3 SWAP2 POP POP JUMP JUMPDEST PUSH1 0x0 PUSH1 0x20 DUP3 DUP5 SUB SLT ISZERO PUSH2 0x1996 JUMPI PUSH2 0x1995 PUSH2 0xDFA JUMP JUMPDEST JUMPDEST PUSH1 0x0 DUP3 ADD MLOAD PUSH8 0xFFFFFFFFFFFFFFFF DUP2 GT ISZERO PUSH2 0x19B4 JUMPI PUSH2 0x19B3 PUSH2 0xDFF JUMP JUMPDEST JUMPDEST PUSH2 0x19C0 DUP5 DUP3 DUP6 ADD PUSH2 0x1952 JUMP JUMPDEST SWAP2 POP POP SWAP3 SWAP2 POP POP JUMP JUMPDEST PUSH32 0x496E76616C69642070726F6F6600000000000000000000000000000000000000 PUSH1 0x0 DUP3 ADD MSTORE POP JUMP JUMPDEST PUSH1 0x0 PUSH2 0x19FF PUSH1 0xD DUP4 PUSH2 0xD49 JUMP JUMPDEST SWAP2 POP PUSH2 0x1A0A DUP3 PUSH2 0x19C9 JUMP JUMPDEST PUSH1 0x20 DUP3 ADD SWAP1 POP SWAP2 SWAP1 POP JUMP JUMPDEST PUSH1 0x0 PUSH1 0x20 DUP3 ADD SWAP1 POP DUP2 DUP2 SUB PUSH1 0x0 DUP4 ADD MSTORE PUSH2 0x1A2E DUP2 PUSH2 0x19F2 JUMP JUMPDEST SWAP1 POP SWAP2 SWAP1 POP JUMP JUMPDEST PUSH1 0x0 PUSH2 0x1A41 DUP4 DUP6 PUSH2 0x10FA JUMP JUMPDEST SWAP4 POP PUSH2 0x1A4E DUP4 DUP6 DUP5 PUSH2 0x1027 JUMP JUMPDEST PUSH2 0x1A57 DUP4 PUSH2 0xD84 JUMP JUMPDEST DUP5 ADD SWAP1 POP SWAP4 SWAP3 POP POP POP JUMP JUMPDEST PUSH1 0x0 PUSH1 0x20 DUP3 ADD SWAP1 POP DUP2 DUP2 SUB PUSH1 0x0 DUP4 ADD MSTORE PUSH2 0x1A7D DUP2 DUP5 DUP7 PUSH2 0x1A35 JUMP JUMPDEST SWAP1 POP SWAP4 SWAP3 POP POP POP JUMP INVALID LOG2 PUSH5 0x6970667358 0x22 SLT KECCAK256 0xCC 0x1F 0x22 CALLDATALOAD EXTCODECOPY RETURNDATACOPY PC CODECOPY PUSH15 0xD1089102513568B2F3A48099BAA782 PUSH3 0x4DE7D8 LOG2 0xA5 OR DUP8 PUSH5 0x736F6C6343 STOP ADDMOD XOR STOP CALLER LOG2 PUSH5 0x6970667358 0x22 SLT KECCAK256 0xE0 PUSH27 0x611CF412FE8C2FECA56E7E6A45E1EF0B623097C1F8A9A560286B9C CODESIZE 0xF8 PUSH6 0x64736F6C6343 STOP ADDMOD XOR STOP CALLER "
        },
        "methodIdentifiers": {
          "deploy(address,bytes32)": "32c02a14",
          "deployedContracts(address,uint256)": "45967555",
          "getDeployedContracts()": "aa9a068f"
        }
      }
    }
  }
}